{
	"OdivilleChoices.sol": {
		"OdivilleChoices": {
			"abi": [
				{
					"inputs": [],
					"stateMutability": "nonpayable",
					"type": "constructor"
				},
				{
					"anonymous": false,
					"inputs": [
						{
							"indexed": true,
							"internalType": "address",
							"name": "from",
							"type": "address"
						},
						{
							"indexed": true,
							"internalType": "address",
							"name": "to",
							"type": "address"
						}
					],
					"name": "OwnershipTransferRequested",
					"type": "event"
				},
				{
					"anonymous": false,
					"inputs": [
						{
							"indexed": true,
							"internalType": "address",
							"name": "from",
							"type": "address"
						},
						{
							"indexed": true,
							"internalType": "address",
							"name": "to",
							"type": "address"
						}
					],
					"name": "OwnershipTransferred",
					"type": "event"
				},
				{
					"anonymous": false,
					"inputs": [
						{
							"indexed": false,
							"internalType": "bytes32",
							"name": "pickHash",
							"type": "bytes32"
						},
						{
							"indexed": false,
							"internalType": "uint256",
							"name": "pickLength",
							"type": "uint256"
						},
						{
							"indexed": false,
							"internalType": "uint256",
							"name": "requestId",
							"type": "uint256"
						}
					],
					"name": "PickCommitted",
					"type": "event"
				},
				{
					"anonymous": false,
					"inputs": [
						{
							"indexed": false,
							"internalType": "bytes32",
							"name": "pickHash",
							"type": "bytes32"
						},
						{
							"indexed": false,
							"internalType": "uint256",
							"name": "pickLength",
							"type": "uint256"
						},
						{
							"indexed": false,
							"internalType": "uint256",
							"name": "result",
							"type": "uint256"
						},
						{
							"indexed": false,
							"internalType": "uint256",
							"name": "requestId",
							"type": "uint256"
						}
					],
					"name": "PickFulfilled",
					"type": "event"
				},
				{
					"anonymous": false,
					"inputs": [
						{
							"indexed": false,
							"internalType": "uint256",
							"name": "requestId",
							"type": "uint256"
						},
						{
							"indexed": false,
							"internalType": "uint256[]",
							"name": "randomWords",
							"type": "uint256[]"
						},
						{
							"indexed": false,
							"internalType": "uint256",
							"name": "payment",
							"type": "uint256"
						}
					],
					"name": "RequestFulfilled",
					"type": "event"
				},
				{
					"anonymous": false,
					"inputs": [
						{
							"indexed": false,
							"internalType": "uint256",
							"name": "requestId",
							"type": "uint256"
						},
						{
							"indexed": false,
							"internalType": "uint32",
							"name": "numWords",
							"type": "uint32"
						}
					],
					"name": "RequestSent",
					"type": "event"
				},
				{
					"inputs": [],
					"name": "acceptOwnership",
					"outputs": [],
					"stateMutability": "nonpayable",
					"type": "function"
				},
				{
					"inputs": [
						{
							"internalType": "bytes32",
							"name": "pickHash",
							"type": "bytes32"
						},
						{
							"internalType": "uint256",
							"name": "pickLength",
							"type": "uint256"
						}
					],
					"name": "commitPickRequest",
					"outputs": [
						{
							"internalType": "uint256",
							"name": "requestId",
							"type": "uint256"
						}
					],
					"stateMutability": "nonpayable",
					"type": "function"
				},
				{
					"inputs": [
						{
							"internalType": "uint256",
							"name": "_requestId",
							"type": "uint256"
						}
					],
					"name": "getPickStatus",
					"outputs": [
						{
							"internalType": "bytes32",
							"name": "pickHash",
							"type": "bytes32"
						},
						{
							"internalType": "uint256",
							"name": "pickLength",
							"type": "uint256"
						},
						{
							"internalType": "bool",
							"name": "fulfilled",
							"type": "bool"
						},
						{
							"internalType": "uint256",
							"name": "result",
							"type": "uint256"
						}
					],
					"stateMutability": "view",
					"type": "function"
				},
				{
					"inputs": [
						{
							"internalType": "uint256",
							"name": "_requestId",
							"type": "uint256"
						}
					],
					"name": "getRequestStatus",
					"outputs": [
						{
							"internalType": "uint256",
							"name": "paid",
							"type": "uint256"
						},
						{
							"internalType": "bool",
							"name": "fulfilled",
							"type": "bool"
						},
						{
							"internalType": "uint256[]",
							"name": "randomWords",
							"type": "uint256[]"
						}
					],
					"stateMutability": "view",
					"type": "function"
				},
				{
					"inputs": [],
					"name": "lastRequestId",
					"outputs": [
						{
							"internalType": "uint256",
							"name": "",
							"type": "uint256"
						}
					],
					"stateMutability": "view",
					"type": "function"
				},
				{
					"inputs": [],
					"name": "owner",
					"outputs": [
						{
							"internalType": "address",
							"name": "",
							"type": "address"
						}
					],
					"stateMutability": "view",
					"type": "function"
				},
				{
					"inputs": [
						{
							"internalType": "uint256",
							"name": "_requestId",
							"type": "uint256"
						},
						{
							"internalType": "uint256[]",
							"name": "_randomWords",
							"type": "uint256[]"
						}
					],
					"name": "rawFulfillRandomWords",
					"outputs": [],
					"stateMutability": "nonpayable",
					"type": "function"
				},
				{
					"inputs": [
						{
							"internalType": "uint256",
							"name": "",
							"type": "uint256"
						}
					],
					"name": "requestIds",
					"outputs": [
						{
							"internalType": "uint256",
							"name": "",
							"type": "uint256"
						}
					],
					"stateMutability": "view",
					"type": "function"
				},
				{
					"inputs": [
						{
							"internalType": "uint256",
							"name": "",
							"type": "uint256"
						}
					],
					"name": "s_picks",
					"outputs": [
						{
							"internalType": "bytes32",
							"name": "pickHash",
							"type": "bytes32"
						},
						{
							"internalType": "uint256",
							"name": "pickLength",
							"type": "uint256"
						},
						{
							"internalType": "bool",
							"name": "fulfilled",
							"type": "bool"
						},
						{
							"internalType": "uint256",
							"name": "result",
							"type": "uint256"
						}
					],
					"stateMutability": "view",
					"type": "function"
				},
				{
					"inputs": [
						{
							"internalType": "uint256",
							"name": "",
							"type": "uint256"
						}
					],
					"name": "s_requests",
					"outputs": [
						{
							"internalType": "uint256",
							"name": "paid",
							"type": "uint256"
						},
						{
							"internalType": "bool",
							"name": "fulfilled",
							"type": "bool"
						}
					],
					"stateMutability": "view",
					"type": "function"
				},
				{
					"inputs": [
						{
							"internalType": "address",
							"name": "to",
							"type": "address"
						}
					],
					"name": "transferOwnership",
					"outputs": [],
					"stateMutability": "nonpayable",
					"type": "function"
				},
				{
					"inputs": [],
					"name": "withdrawLink",
					"outputs": [],
					"stateMutability": "nonpayable",
					"type": "function"
				}
			],
			"devdoc": {
				"kind": "dev",
				"methods": {},
				"version": 1
			},
			"evm": {
				"assembly": "    /* \"OdivilleChoices.sol\":194:4446  contract OdivilleChoices is ... */\n  mstore(0x40, 0xc0)\n    /* \"OdivilleChoices.sol\":1060:1092  uint32 callbackGasLimit = 200000 */\n  0x06\n  dup1\n  sload\n    /* \"OdivilleChoices.sol\":1207:1271  address linkAddress = 0x514910771AF9Ca656af840dff83E8264EcF986CA */\n  0x514910771af9ca656af840dff83e8264ecf986ca00000001000600030d40\n  not(sub(shl(0xf0, 0x01), 0x01))\n  swap1\n  swap2\n  and\n  or\n  swap1\n  sstore\n    /* \"OdivilleChoices.sol\":1325:1392  address wrapperAddress = 0x5A861794B927983406fCE1D062e00b9368d97Df6 */\n  0x07\n  dup1\n  sload\n  not(sub(shl(0xa0, 0x01), 0x01))\n  and\n    /* \"OdivilleChoices.sol\":1350:1392  0x5A861794B927983406fCE1D062e00b9368d97Df6 */\n  0x5a861794b927983406fce1d062e00b9368d97df6\n    /* \"OdivilleChoices.sol\":1325:1392  address wrapperAddress = 0x5A861794B927983406fCE1D062e00b9368d97Df6 */\n  or\n  swap1\n  sstore\n    /* \"OdivilleChoices.sol\":1399:1516  constructor()... */\n  callvalue\n  dup1\n  iszero\n  tag_1\n  jumpi\n  0x00\n  dup1\n  revert\ntag_1:\n  pop\n    /* \"OdivilleChoices.sol\":1481:1492  linkAddress */\n  sload(0x06)\n    /* \"OdivilleChoices.sol\":1494:1508  wrapperAddress */\n  sload(0x07)\n  sub(shl(0xa0, 0x01), 0x01)\n    /* \"OdivilleChoices.sol\":1481:1492  linkAddress */\n  0x0100000000000000000000\n  swap1\n  swap3\n  div\n  dup3\n  and\n    /* \"@chainlink/contracts/src/v0.8/VRFV2WrapperConsumerBase.sol\":1912:1944  LINK = LinkTokenInterface(_link) */\n  0x80\n  mstore\n    /* \"OdivilleChoices.sol\":1494:1508  wrapperAddress */\n  and\n    /* \"@chainlink/contracts/src/v0.8/VRFV2WrapperConsumerBase.sol\":1950:2003  VRF_V2_WRAPPER = VRFV2WrapperInterface(_vrfV2Wrapper) */\n  0xa0\n  mstore\n    /* \"OdivilleChoices.sol\":1436:1446  msg.sender */\n  caller\n  dup1\n    /* \"@chainlink/contracts/src/v0.8/ConfirmedOwner.sol\":345:346  0 */\n  0x00\n    /* \"OdivilleChoices.sol\":1436:1446  msg.sender */\n  dup2\n    /* \"@chainlink/contracts/src/v0.8/ConfirmedOwnerWithProposal.sol\":544:603  require(newOwner != address(0), \"Cannot set owner to zero\") */\n  tag_8\n  jumpi\n  mload(0x40)\n  shl(0xe5, 0x461bcd)\n  dup2\n  mstore\n    /* \"#utility.yul\":216:218   */\n  0x20\n    /* \"@chainlink/contracts/src/v0.8/ConfirmedOwnerWithProposal.sol\":544:603  require(newOwner != address(0), \"Cannot set owner to zero\") */\n  0x04\n  dup3\n  add\n    /* \"#utility.yul\":198:219   */\n  mstore\n    /* \"#utility.yul\":255:257   */\n  0x18\n    /* \"#utility.yul\":235:253   */\n  0x24\n  dup3\n  add\n    /* \"#utility.yul\":228:258   */\n  mstore\n    /* \"#utility.yul\":294:320   */\n  0x43616e6e6f7420736574206f776e657220746f207a65726f0000000000000000\n    /* \"#utility.yul\":274:292   */\n  0x44\n  dup3\n  add\n    /* \"#utility.yul\":267:321   */\n  mstore\n    /* \"#utility.yul\":338:356   */\n  0x64\n  add\n    /* \"@chainlink/contracts/src/v0.8/ConfirmedOwnerWithProposal.sol\":544:603  require(newOwner != address(0), \"Cannot set owner to zero\") */\ntag_9:\n  mload(0x40)\n  dup1\n  swap2\n  sub\n  swap1\n  revert\ntag_8:\n    /* \"@chainlink/contracts/src/v0.8/ConfirmedOwnerWithProposal.sol\":610:617  s_owner */\n  0x00\n    /* \"@chainlink/contracts/src/v0.8/ConfirmedOwnerWithProposal.sol\":610:628  s_owner = newOwner */\n  dup1\n  sload\n  not(sub(shl(0xa0, 0x01), 0x01))\n  and\n  sub(shl(0xa0, 0x01), 0x01)\n  dup5\n  dup2\n  and\n  swap2\n  swap1\n  swap2\n  or\n  swap1\n  swap2\n  sstore\n    /* \"@chainlink/contracts/src/v0.8/ConfirmedOwnerWithProposal.sol\":638:664  pendingOwner != address(0) */\n  dup2\n  and\n  iszero\n    /* \"@chainlink/contracts/src/v0.8/ConfirmedOwnerWithProposal.sol\":634:713  if (pendingOwner != address(0)) {... */\n  tag_12\n  jumpi\n    /* \"@chainlink/contracts/src/v0.8/ConfirmedOwnerWithProposal.sol\":674:706  _transferOwnership(pendingOwner) */\n  tag_12\n    /* \"@chainlink/contracts/src/v0.8/ConfirmedOwnerWithProposal.sol\":693:705  pendingOwner */\n  dup2\n    /* \"@chainlink/contracts/src/v0.8/ConfirmedOwnerWithProposal.sol\":674:692  _transferOwnership */\n  tag_13\n    /* \"@chainlink/contracts/src/v0.8/ConfirmedOwnerWithProposal.sol\":674:706  _transferOwnership(pendingOwner) */\n  jump\t// in\ntag_12:\n    /* \"@chainlink/contracts/src/v0.8/ConfirmedOwnerWithProposal.sol\":486:717  constructor(address newOwner, address pendingOwner) {... */\n  pop\n  pop\n    /* \"@chainlink/contracts/src/v0.8/ConfirmedOwner.sol\":270:351  constructor(address newOwner) ConfirmedOwnerWithProposal(newOwner, address(0)) {} */\n  pop\n    /* \"OdivilleChoices.sol\":194:4446  contract OdivilleChoices is ... */\n  jump(tag_21)\n    /* \"@chainlink/contracts/src/v0.8/ConfirmedOwnerWithProposal.sol\":1497:1685  function _transferOwnership(address to) private {... */\ntag_13:\n    /* \"@chainlink/contracts/src/v0.8/ConfirmedOwnerWithProposal.sol\":1565:1575  msg.sender */\n  caller\n  sub(shl(0xa0, 0x01), 0x01)\n    /* \"@chainlink/contracts/src/v0.8/ConfirmedOwnerWithProposal.sol\":1559:1575  to != msg.sender */\n  dup3\n  and\n  sub\n    /* \"@chainlink/contracts/src/v0.8/ConfirmedOwnerWithProposal.sol\":1551:1603  require(to != msg.sender, \"Cannot transfer to self\") */\n  tag_18\n  jumpi\n  mload(0x40)\n  shl(0xe5, 0x461bcd)\n  dup2\n  mstore\n    /* \"#utility.yul\":569:571   */\n  0x20\n    /* \"@chainlink/contracts/src/v0.8/ConfirmedOwnerWithProposal.sol\":1551:1603  require(to != msg.sender, \"Cannot transfer to self\") */\n  0x04\n  dup3\n  add\n    /* \"#utility.yul\":551:572   */\n  mstore\n    /* \"#utility.yul\":608:610   */\n  0x17\n    /* \"#utility.yul\":588:606   */\n  0x24\n  dup3\n  add\n    /* \"#utility.yul\":581:611   */\n  mstore\n    /* \"#utility.yul\":647:672   */\n  0x43616e6e6f74207472616e7366657220746f2073656c66000000000000000000\n    /* \"#utility.yul\":627:645   */\n  0x44\n  dup3\n  add\n    /* \"#utility.yul\":620:673   */\n  mstore\n    /* \"#utility.yul\":690:708   */\n  0x64\n  add\n    /* \"@chainlink/contracts/src/v0.8/ConfirmedOwnerWithProposal.sol\":1551:1603  require(to != msg.sender, \"Cannot transfer to self\") */\n  tag_9\n    /* \"#utility.yul\":367:714   */\n  jump\n    /* \"@chainlink/contracts/src/v0.8/ConfirmedOwnerWithProposal.sol\":1551:1603  require(to != msg.sender, \"Cannot transfer to self\") */\ntag_18:\n    /* \"@chainlink/contracts/src/v0.8/ConfirmedOwnerWithProposal.sol\":1610:1624  s_pendingOwner */\n  0x01\n    /* \"@chainlink/contracts/src/v0.8/ConfirmedOwnerWithProposal.sol\":1610:1629  s_pendingOwner = to */\n  dup1\n  sload\n  not(sub(shl(0xa0, 0x01), 0x01))\n  and\n  sub(shl(0xa0, 0x01), 0x01)\n  dup4\n  dup2\n  and\n  swap2\n  dup3\n  or\n  swap1\n  swap3\n  sstore\n  0x00\n    /* \"@chainlink/contracts/src/v0.8/ConfirmedOwnerWithProposal.sol\":1668:1675  s_owner */\n  dup1\n  sload\n    /* \"@chainlink/contracts/src/v0.8/ConfirmedOwnerWithProposal.sol\":1641:1680  OwnershipTransferRequested(s_owner, to) */\n  mload(0x40)\n    /* \"@chainlink/contracts/src/v0.8/ConfirmedOwnerWithProposal.sol\":1610:1629  s_pendingOwner = to */\n  swap3\n  swap4\n    /* \"@chainlink/contracts/src/v0.8/ConfirmedOwnerWithProposal.sol\":1668:1675  s_owner */\n  and\n  swap2\n    /* \"@chainlink/contracts/src/v0.8/ConfirmedOwnerWithProposal.sol\":1641:1680  OwnershipTransferRequested(s_owner, to) */\n  0xed8889f560326eb138920d842192f0eb3dd22b4f139c87a2c57538e05bae1278\n  swap2\n  swap1\n  log3\n    /* \"@chainlink/contracts/src/v0.8/ConfirmedOwnerWithProposal.sol\":1497:1685  function _transferOwnership(address to) private {... */\n  pop\n  jump\t// out\n    /* \"#utility.yul\":367:714   */\ntag_21:\n    /* \"OdivilleChoices.sol\":194:4446  contract OdivilleChoices is ... */\n  mload(0x80)\n  mload(0xa0)\n  codecopy(0x00, dataOffset(sub_0), dataSize(sub_0))\n  0x00\n  assignImmutable(\"0xa75e2cf51d42f4164e4624f425e61448777a748393b6f6a5bcb1d94d1e8e5e98\")\n  0x00\n  assignImmutable(\"0x266b1640ade99b2f22d24bd1f0c6c2736890e0398a5a0b97b63a35856ae65c2b\")\n  return(0x00, dataSize(sub_0))\nstop\n\nsub_0: assembly {\n        /* \"OdivilleChoices.sol\":194:4446  contract OdivilleChoices is ... */\n      mstore(0x40, 0x80)\n      callvalue\n      dup1\n      iszero\n      tag_1\n      jumpi\n      0x00\n      dup1\n      revert\n    tag_1:\n      pop\n      jumpi(tag_2, lt(calldatasize, 0x04))\n      shr(0xe0, calldataload(0x00))\n      dup1\n      0xd41f27d9\n      gt\n      tag_15\n      jumpi\n      dup1\n      0xd41f27d9\n      eq\n      tag_9\n      jumpi\n      dup1\n      0xd8a4676f\n      eq\n      tag_10\n      jumpi\n      dup1\n      0xd94afeb6\n      eq\n      tag_11\n      jumpi\n      dup1\n      0xdeb93c7c\n      eq\n      tag_12\n      jumpi\n      dup1\n      0xf2fde38b\n      eq\n      tag_13\n      jumpi\n      dup1\n      0xfc2a88c3\n      eq\n      tag_14\n      jumpi\n      0x00\n      dup1\n      revert\n    tag_15:\n      dup1\n      0x1fe543e3\n      eq\n      tag_3\n      jumpi\n      dup1\n      0x79ba5097\n      eq\n      tag_4\n      jumpi\n      dup1\n      0x8796ba8c\n      eq\n      tag_5\n      jumpi\n      dup1\n      0x8da5cb5b\n      eq\n      tag_6\n      jumpi\n      dup1\n      0x8dc654a2\n      eq\n      tag_7\n      jumpi\n      dup1\n      0xa168fa89\n      eq\n      tag_8\n      jumpi\n    tag_2:\n      0x00\n      dup1\n      revert\n        /* \"@chainlink/contracts/src/v0.8/VRFV2WrapperConsumerBase.sol\":3389:3622  function rawFulfillRandomWords(uint256 _requestId, uint256[] memory _randomWords) external {... */\n    tag_3:\n      tag_16\n      tag_17\n      calldatasize\n      0x04\n      tag_18\n      jump\t// in\n    tag_17:\n      tag_19\n      jump\t// in\n    tag_16:\n      stop\n        /* \"@chainlink/contracts/src/v0.8/ConfirmedOwnerWithProposal.sol\":1016:1281  function acceptOwnership() external override {... */\n    tag_4:\n      tag_16\n      tag_21\n      jump\t// in\n        /* \"OdivilleChoices.sol\":992:1019  uint256[] public requestIds */\n    tag_5:\n      tag_22\n      tag_23\n      calldatasize\n      0x04\n      tag_24\n      jump\t// in\n    tag_23:\n      tag_25\n      jump\t// in\n    tag_22:\n      mload(0x40)\n        /* \"#utility.yul\":1665:1690   */\n      swap1\n      dup2\n      mstore\n        /* \"#utility.yul\":1653:1655   */\n      0x20\n        /* \"#utility.yul\":1638:1656   */\n      add\n        /* \"OdivilleChoices.sol\":992:1019  uint256[] public requestIds */\n    tag_26:\n      mload(0x40)\n      dup1\n      swap2\n      sub\n      swap1\n      return\n        /* \"@chainlink/contracts/src/v0.8/ConfirmedOwnerWithProposal.sol\":1332:1413  function owner() public view override returns (address) {... */\n    tag_6:\n        /* \"@chainlink/contracts/src/v0.8/ConfirmedOwnerWithProposal.sol\":1379:1386  address */\n      0x00\n        /* \"@chainlink/contracts/src/v0.8/ConfirmedOwnerWithProposal.sol\":1401:1408  s_owner */\n      sload\n        /* \"@chainlink/contracts/src/v0.8/ConfirmedOwnerWithProposal.sol\":1332:1413  function owner() public view override returns (address) {... */\n      mload(0x40)\n      sub(shl(0xa0, 0x01), 0x01)\n        /* \"@chainlink/contracts/src/v0.8/ConfirmedOwnerWithProposal.sol\":1401:1408  s_owner */\n      swap1\n      swap2\n      and\n        /* \"#utility.yul\":1847:1898   */\n      dup2\n      mstore\n        /* \"#utility.yul\":1835:1837   */\n      0x20\n        /* \"#utility.yul\":1820:1838   */\n      add\n        /* \"@chainlink/contracts/src/v0.8/ConfirmedOwnerWithProposal.sol\":1332:1413  function owner() public view override returns (address) {... */\n      tag_26\n        /* \"#utility.yul\":1701:1904   */\n      jump\n        /* \"OdivilleChoices.sol\":4197:4443  function withdrawLink() public onlyOwner {... */\n    tag_7:\n      tag_16\n      tag_33\n      jump\t// in\n        /* \"OdivilleChoices.sol\":749:800  mapping(uint256 => RequestStatus) public s_requests */\n    tag_8:\n      tag_34\n      tag_35\n      calldatasize\n      0x04\n      tag_24\n      jump\t// in\n    tag_35:\n      mstore(0x20, 0x02)\n      0x00\n      swap1\n      dup2\n      mstore\n      0x40\n      swap1\n      keccak256\n      dup1\n      sload\n      0x01\n      swap1\n      swap2\n      add\n      sload\n      0xff\n      and\n      dup3\n      jump\n    tag_34:\n      0x40\n      dup1\n      mload\n        /* \"#utility.yul\":2077:2102   */\n      swap3\n      dup4\n      mstore\n        /* \"#utility.yul\":2145:2159   */\n      swap1\n      iszero\n        /* \"#utility.yul\":2138:2160   */\n      iszero\n        /* \"#utility.yul\":2133:2135   */\n      0x20\n        /* \"#utility.yul\":2118:2136   */\n      dup4\n      add\n        /* \"#utility.yul\":2111:2161   */\n      mstore\n        /* \"#utility.yul\":2050:2068   */\n      add\n        /* \"OdivilleChoices.sol\":749:800  mapping(uint256 => RequestStatus) public s_requests */\n      tag_26\n        /* \"#utility.yul\":1909:2167   */\n      jump\n        /* \"OdivilleChoices.sol\":940:985  mapping(uint256 => PickStatus) public s_picks */\n    tag_9:\n      tag_39\n      tag_40\n      calldatasize\n      0x04\n      tag_24\n      jump\t// in\n    tag_40:\n      0x03\n      0x20\n      dup2\n      swap1\n      mstore\n      0x00\n      swap2\n      dup3\n      mstore\n      0x40\n      swap1\n      swap2\n      keccak256\n      dup1\n      sload\n      0x01\n      dup3\n      add\n      sload\n      0x02\n      dup4\n      add\n      sload\n      swap3\n      swap1\n      swap4\n      add\n      sload\n      swap1\n      swap3\n      swap2\n      0xff\n      and\n      swap1\n      dup5\n      jump\n    tag_39:\n      0x40\n      dup1\n      mload\n        /* \"#utility.yul\":2397:2422   */\n      swap5\n      dup6\n      mstore\n        /* \"#utility.yul\":2453:2455   */\n      0x20\n        /* \"#utility.yul\":2438:2456   */\n      dup6\n      add\n        /* \"#utility.yul\":2431:2465   */\n      swap4\n      swap1\n      swap4\n      mstore\n        /* \"#utility.yul\":2508:2522   */\n      swap1\n      iszero\n        /* \"#utility.yul\":2501:2523   */\n      iszero\n        /* \"#utility.yul\":2481:2499   */\n      swap2\n      dup4\n      add\n        /* \"#utility.yul\":2474:2524   */\n      swap2\n      swap1\n      swap2\n      mstore\n        /* \"#utility.yul\":2555:2557   */\n      0x60\n        /* \"#utility.yul\":2540:2558   */\n      dup3\n      add\n        /* \"#utility.yul\":2533:2567   */\n      mstore\n        /* \"#utility.yul\":2384:2387   */\n      0x80\n        /* \"#utility.yul\":2369:2388   */\n      add\n        /* \"OdivilleChoices.sol\":940:985  mapping(uint256 => PickStatus) public s_picks */\n      tag_26\n        /* \"#utility.yul\":2172:2573   */\n      jump\n        /* \"OdivilleChoices.sol\":3737:4120  function getRequestStatus(... */\n    tag_10:\n      tag_44\n      tag_45\n      calldatasize\n      0x04\n      tag_24\n      jump\t// in\n    tag_45:\n      tag_46\n      jump\t// in\n    tag_44:\n      mload(0x40)\n      tag_26\n      swap4\n      swap3\n      swap2\n      swap1\n      tag_48\n      jump\t// in\n        /* \"OdivilleChoices.sol\":3342:3731  function getPickStatus(... */\n    tag_11:\n      tag_39\n      tag_50\n      calldatasize\n      0x04\n      tag_24\n      jump\t// in\n    tag_50:\n      tag_51\n      jump\t// in\n        /* \"OdivilleChoices.sol\":1522:2467  function commitPickRequest(bytes32 pickHash, uint256 pickLength)... */\n    tag_12:\n      tag_22\n      tag_54\n      calldatasize\n      0x04\n      tag_55\n      jump\t// in\n    tag_54:\n      tag_56\n      jump\t// in\n        /* \"@chainlink/contracts/src/v0.8/ConfirmedOwnerWithProposal.sol\":826:924  function transferOwnership(address to) public override onlyOwner {... */\n    tag_13:\n      tag_16\n      tag_59\n      calldatasize\n      0x04\n      tag_60\n      jump\t// in\n    tag_59:\n      tag_61\n      jump\t// in\n        /* \"OdivilleChoices.sol\":1025:1053  uint256 public lastRequestId */\n    tag_14:\n      tag_22\n      sload(0x05)\n      dup2\n      jump\n        /* \"@chainlink/contracts/src/v0.8/VRFV2WrapperConsumerBase.sol\":3389:3622  function rawFulfillRandomWords(uint256 _requestId, uint256[] memory _randomWords) external {... */\n    tag_19:\n        /* \"@chainlink/contracts/src/v0.8/VRFV2WrapperConsumerBase.sol\":3494:3504  msg.sender */\n      caller\n      sub(shl(0xa0, 0x01), 0x01)\n        /* \"@chainlink/contracts/src/v0.8/VRFV2WrapperConsumerBase.sol\":3516:3530  VRF_V2_WRAPPER */\n      immutable(\"0xa75e2cf51d42f4164e4624f425e61448777a748393b6f6a5bcb1d94d1e8e5e98\")\n        /* \"@chainlink/contracts/src/v0.8/VRFV2WrapperConsumerBase.sol\":3494:3531  msg.sender == address(VRF_V2_WRAPPER) */\n      and\n      eq\n        /* \"@chainlink/contracts/src/v0.8/VRFV2WrapperConsumerBase.sol\":3486:3567  require(msg.sender == address(VRF_V2_WRAPPER), \"only VRF V2 wrapper can fulfill\") */\n      tag_66\n      jumpi\n      mload(0x40)\n      shl(0xe5, 0x461bcd)\n      dup2\n      mstore\n        /* \"#utility.yul\":4182:4184   */\n      0x20\n        /* \"@chainlink/contracts/src/v0.8/VRFV2WrapperConsumerBase.sol\":3486:3567  require(msg.sender == address(VRF_V2_WRAPPER), \"only VRF V2 wrapper can fulfill\") */\n      0x04\n      dup3\n      add\n        /* \"#utility.yul\":4164:4185   */\n      mstore\n        /* \"#utility.yul\":4221:4223   */\n      0x1f\n        /* \"#utility.yul\":4201:4219   */\n      0x24\n      dup3\n      add\n        /* \"#utility.yul\":4194:4224   */\n      mstore\n        /* \"#utility.yul\":4260:4293   */\n      0x6f6e6c792056524620563220777261707065722063616e2066756c66696c6c00\n        /* \"#utility.yul\":4240:4258   */\n      0x44\n      dup3\n      add\n        /* \"#utility.yul\":4233:4294   */\n      mstore\n        /* \"#utility.yul\":4311:4329   */\n      0x64\n      add\n        /* \"@chainlink/contracts/src/v0.8/VRFV2WrapperConsumerBase.sol\":3486:3567  require(msg.sender == address(VRF_V2_WRAPPER), \"only VRF V2 wrapper can fulfill\") */\n    tag_67:\n      mload(0x40)\n      dup1\n      swap2\n      sub\n      swap1\n      revert\n    tag_66:\n        /* \"@chainlink/contracts/src/v0.8/VRFV2WrapperConsumerBase.sol\":3573:3617  fulfillRandomWords(_requestId, _randomWords) */\n      tag_69\n        /* \"@chainlink/contracts/src/v0.8/VRFV2WrapperConsumerBase.sol\":3592:3602  _requestId */\n      dup3\n        /* \"@chainlink/contracts/src/v0.8/VRFV2WrapperConsumerBase.sol\":3604:3616  _randomWords */\n      dup3\n        /* \"@chainlink/contracts/src/v0.8/VRFV2WrapperConsumerBase.sol\":3573:3591  fulfillRandomWords */\n      tag_70\n        /* \"@chainlink/contracts/src/v0.8/VRFV2WrapperConsumerBase.sol\":3573:3617  fulfillRandomWords(_requestId, _randomWords) */\n      jump\t// in\n    tag_69:\n        /* \"@chainlink/contracts/src/v0.8/VRFV2WrapperConsumerBase.sol\":3389:3622  function rawFulfillRandomWords(uint256 _requestId, uint256[] memory _randomWords) external {... */\n      pop\n      pop\n      jump\t// out\n        /* \"@chainlink/contracts/src/v0.8/ConfirmedOwnerWithProposal.sol\":1016:1281  function acceptOwnership() external override {... */\n    tag_21:\n        /* \"@chainlink/contracts/src/v0.8/ConfirmedOwnerWithProposal.sol\":1089:1103  s_pendingOwner */\n      and(sub(shl(0xa0, 0x01), 0x01), sload(0x01))\n        /* \"@chainlink/contracts/src/v0.8/ConfirmedOwnerWithProposal.sol\":1075:1085  msg.sender */\n      caller\n        /* \"@chainlink/contracts/src/v0.8/ConfirmedOwnerWithProposal.sol\":1075:1103  msg.sender == s_pendingOwner */\n      eq\n        /* \"@chainlink/contracts/src/v0.8/ConfirmedOwnerWithProposal.sol\":1067:1130  require(msg.sender == s_pendingOwner, \"Must be proposed owner\") */\n      tag_72\n      jumpi\n      mload(0x40)\n      shl(0xe5, 0x461bcd)\n      dup2\n      mstore\n        /* \"#utility.yul\":4542:4544   */\n      0x20\n        /* \"@chainlink/contracts/src/v0.8/ConfirmedOwnerWithProposal.sol\":1067:1130  require(msg.sender == s_pendingOwner, \"Must be proposed owner\") */\n      0x04\n      dup3\n      add\n        /* \"#utility.yul\":4524:4545   */\n      mstore\n        /* \"#utility.yul\":4581:4583   */\n      0x16\n        /* \"#utility.yul\":4561:4579   */\n      0x24\n      dup3\n      add\n        /* \"#utility.yul\":4554:4584   */\n      mstore\n      shl(0x51, 0x26bab9ba10313290383937b837b9b2b21037bbb732b9)\n        /* \"#utility.yul\":4600:4618   */\n      0x44\n      dup3\n      add\n        /* \"#utility.yul\":4593:4645   */\n      mstore\n        /* \"#utility.yul\":4662:4680   */\n      0x64\n      add\n        /* \"@chainlink/contracts/src/v0.8/ConfirmedOwnerWithProposal.sol\":1067:1130  require(msg.sender == s_pendingOwner, \"Must be proposed owner\") */\n      tag_67\n        /* \"#utility.yul\":4340:4686   */\n      jump\n        /* \"@chainlink/contracts/src/v0.8/ConfirmedOwnerWithProposal.sol\":1067:1130  require(msg.sender == s_pendingOwner, \"Must be proposed owner\") */\n    tag_72:\n        /* \"@chainlink/contracts/src/v0.8/ConfirmedOwnerWithProposal.sol\":1137:1153  address oldOwner */\n      0x00\n        /* \"@chainlink/contracts/src/v0.8/ConfirmedOwnerWithProposal.sol\":1156:1163  s_owner */\n      dup1\n      sload\n        /* \"@chainlink/contracts/src/v0.8/ConfirmedOwnerWithProposal.sol\":1179:1189  msg.sender */\n      caller\n      not(sub(shl(0xa0, 0x01), 0x01))\n        /* \"@chainlink/contracts/src/v0.8/ConfirmedOwnerWithProposal.sol\":1169:1189  s_owner = msg.sender */\n      dup1\n      dup4\n      and\n      dup3\n      or\n      dup5\n      sstore\n      0x01\n        /* \"@chainlink/contracts/src/v0.8/ConfirmedOwnerWithProposal.sol\":1195:1222  s_pendingOwner = address(0) */\n      dup1\n      sload\n      swap1\n      swap2\n      and\n      swap1\n      sstore\n        /* \"@chainlink/contracts/src/v0.8/ConfirmedOwnerWithProposal.sol\":1234:1276  OwnershipTransferred(oldOwner, msg.sender) */\n      mload(0x40)\n      sub(shl(0xa0, 0x01), 0x01)\n        /* \"@chainlink/contracts/src/v0.8/ConfirmedOwnerWithProposal.sol\":1156:1163  s_owner */\n      swap1\n      swap3\n      and\n      swap3\n        /* \"@chainlink/contracts/src/v0.8/ConfirmedOwnerWithProposal.sol\":1179:1189  msg.sender */\n      swap1\n      swap2\n        /* \"@chainlink/contracts/src/v0.8/ConfirmedOwnerWithProposal.sol\":1156:1163  s_owner */\n      dup4\n      swap2\n        /* \"@chainlink/contracts/src/v0.8/ConfirmedOwnerWithProposal.sol\":1234:1276  OwnershipTransferred(oldOwner, msg.sender) */\n      0x8be0079c531659141344cd1fd0a4f28419497f9722a3daafe3b4186f6b6457e0\n      swap2\n      log3\n        /* \"@chainlink/contracts/src/v0.8/ConfirmedOwnerWithProposal.sol\":1061:1281  {... */\n      pop\n        /* \"@chainlink/contracts/src/v0.8/ConfirmedOwnerWithProposal.sol\":1016:1281  function acceptOwnership() external override {... */\n      jump\t// out\n        /* \"OdivilleChoices.sol\":992:1019  uint256[] public requestIds */\n    tag_25:\n      0x04\n      dup2\n      dup2\n      sload\n      dup2\n      lt\n      tag_75\n      jumpi\n      0x00\n      dup1\n      revert\n    tag_75:\n      0x00\n      swap2\n      dup3\n      mstore\n      0x20\n      swap1\n      swap2\n      keccak256\n      add\n      sload\n      swap1\n      pop\n      dup2\n      jump\t// out\n        /* \"OdivilleChoices.sol\":4197:4443  function withdrawLink() public onlyOwner {... */\n    tag_33:\n        /* \"@chainlink/contracts/src/v0.8/ConfirmedOwnerWithProposal.sol\":1956:1976  _validateOwnership() */\n      tag_79\n        /* \"@chainlink/contracts/src/v0.8/ConfirmedOwnerWithProposal.sol\":1956:1974  _validateOwnership */\n      tag_80\n        /* \"@chainlink/contracts/src/v0.8/ConfirmedOwnerWithProposal.sol\":1956:1976  _validateOwnership() */\n      jump\t// in\n    tag_79:\n        /* \"OdivilleChoices.sol\":4293:4304  linkAddress */\n      sload(0x06)\n        /* \"OdivilleChoices.sol\":4362:4391  link.balanceOf(address(this)) */\n      mload(0x40)\n      shl(0xe0, 0x70a08231)\n      dup2\n      mstore\n        /* \"OdivilleChoices.sol\":4385:4389  this */\n      address\n        /* \"OdivilleChoices.sol\":4362:4391  link.balanceOf(address(this)) */\n      0x04\n      dup3\n      add\n        /* \"#utility.yul\":1847:1898   */\n      mstore\n      shl(0x50, 0x01)\n        /* \"OdivilleChoices.sol\":4293:4304  linkAddress */\n      swap1\n      swap2\n      div\n      sub(shl(0xa0, 0x01), 0x01)\n      and\n      swap1\n      dup2\n      swap1\n        /* \"OdivilleChoices.sol\":4336:4349  link.transfer */\n      0xa9059cbb\n      swap1\n        /* \"OdivilleChoices.sol\":4350:4360  msg.sender */\n      caller\n      swap1\n        /* \"OdivilleChoices.sol\":4293:4304  linkAddress */\n      dup4\n      swap1\n        /* \"OdivilleChoices.sol\":4362:4376  link.balanceOf */\n      0x70a08231\n      swap1\n        /* \"#utility.yul\":1820:1838   */\n      0x24\n      add\n        /* \"OdivilleChoices.sol\":4362:4391  link.balanceOf(address(this)) */\n      0x20\n      mload(0x40)\n      dup1\n      dup4\n      sub\n      dup2\n      dup7\n      gas\n      staticcall\n      iszero\n      dup1\n      iszero\n      tag_84\n      jumpi\n      returndatasize\n      0x00\n      dup1\n      returndatacopy\n      revert(0x00, returndatasize)\n    tag_84:\n      pop\n      pop\n      pop\n      pop\n      mload(0x40)\n      returndatasize\n      not(0x1f)\n      0x1f\n      dup3\n      add\n      and\n      dup3\n      add\n      dup1\n      0x40\n      mstore\n      pop\n      dup2\n      add\n      swap1\n      tag_85\n      swap2\n      swap1\n      tag_86\n      jump\t// in\n    tag_85:\n        /* \"OdivilleChoices.sol\":4336:4392  link.transfer(msg.sender, link.balanceOf(address(this))) */\n      mload(0x40)\n      not(sub(shl(0xe0, 0x01), 0x01))\n      0xe0\n      dup6\n      swap1\n      shl\n      and\n      dup2\n      mstore\n      sub(shl(0xa0, 0x01), 0x01)\n        /* \"#utility.yul\":5072:5104   */\n      swap1\n      swap3\n      and\n        /* \"OdivilleChoices.sol\":4336:4392  link.transfer(msg.sender, link.balanceOf(address(this))) */\n      0x04\n      dup4\n      add\n        /* \"#utility.yul\":5054:5105   */\n      mstore\n        /* \"#utility.yul\":5121:5139   */\n      0x24\n      dup3\n      add\n        /* \"#utility.yul\":5114:5148   */\n      mstore\n        /* \"#utility.yul\":5027:5045   */\n      0x44\n      add\n        /* \"OdivilleChoices.sol\":4336:4392  link.transfer(msg.sender, link.balanceOf(address(this))) */\n      0x20\n      mload(0x40)\n      dup1\n      dup4\n      sub\n      dup2\n      0x00\n      dup8\n      gas\n      call\n      iszero\n      dup1\n      iszero\n      tag_90\n      jumpi\n      returndatasize\n      0x00\n      dup1\n      returndatacopy\n      revert(0x00, returndatasize)\n    tag_90:\n      pop\n      pop\n      pop\n      pop\n      mload(0x40)\n      returndatasize\n      not(0x1f)\n      0x1f\n      dup3\n      add\n      and\n      dup3\n      add\n      dup1\n      0x40\n      mstore\n      pop\n      dup2\n      add\n      swap1\n      tag_91\n      swap2\n      swap1\n      tag_92\n      jump\t// in\n    tag_91:\n        /* \"OdivilleChoices.sol\":4315:4436  require(... */\n      tag_93\n      jumpi\n      mload(0x40)\n      shl(0xe5, 0x461bcd)\n      dup2\n      mstore\n        /* \"#utility.yul\":5643:5645   */\n      0x20\n        /* \"OdivilleChoices.sol\":4315:4436  require(... */\n      0x04\n      dup3\n      add\n        /* \"#utility.yul\":5625:5646   */\n      mstore\n        /* \"#utility.yul\":5682:5684   */\n      0x12\n        /* \"#utility.yul\":5662:5680   */\n      0x24\n      dup3\n      add\n        /* \"#utility.yul\":5655:5685   */\n      mstore\n      shl(0x71, 0x2ab730b13632903a37903a3930b739b332b9)\n        /* \"#utility.yul\":5701:5719   */\n      0x44\n      dup3\n      add\n        /* \"#utility.yul\":5694:5742   */\n      mstore\n        /* \"#utility.yul\":5759:5777   */\n      0x64\n      add\n        /* \"OdivilleChoices.sol\":4315:4436  require(... */\n      tag_67\n        /* \"#utility.yul\":5441:5783   */\n      jump\n        /* \"OdivilleChoices.sol\":4315:4436  require(... */\n    tag_93:\n        /* \"OdivilleChoices.sol\":4238:4443  {... */\n      pop\n        /* \"OdivilleChoices.sol\":4197:4443  function withdrawLink() public onlyOwner {... */\n      jump\t// out\n        /* \"OdivilleChoices.sol\":3737:4120  function getRequestStatus(... */\n    tag_46:\n        /* \"OdivilleChoices.sol\":3844:3856  uint256 paid */\n      0x00\n        /* \"OdivilleChoices.sol\":3926:3948  s_requests[_requestId] */\n      dup2\n      dup2\n      mstore\n        /* \"OdivilleChoices.sol\":3926:3936  s_requests */\n      0x02\n        /* \"OdivilleChoices.sol\":3926:3948  s_requests[_requestId] */\n      0x20\n      mstore\n      0x40\n      dup2\n      keccak256\n        /* \"OdivilleChoices.sol\":3926:3953  s_requests[_requestId].paid */\n      sload\n        /* \"OdivilleChoices.sol\":3844:3856  uint256 paid */\n      dup2\n      swap1\n        /* \"OdivilleChoices.sol\":3874:3902  uint256[] memory randomWords */\n      0x60\n      swap1\n        /* \"OdivilleChoices.sol\":3918:3979  require(s_requests[_requestId].paid > 0, \"request not found\") */\n      tag_97\n      jumpi\n      mload(0x40)\n      shl(0xe5, 0x461bcd)\n      dup2\n      mstore\n        /* \"#utility.yul\":5990:5992   */\n      0x20\n        /* \"OdivilleChoices.sol\":3918:3979  require(s_requests[_requestId].paid > 0, \"request not found\") */\n      0x04\n      dup3\n      add\n        /* \"#utility.yul\":5972:5993   */\n      mstore\n        /* \"#utility.yul\":6029:6031   */\n      0x11\n        /* \"#utility.yul\":6009:6027   */\n      0x24\n      dup3\n      add\n        /* \"#utility.yul\":6002:6032   */\n      mstore\n      shl(0x7a, 0x1c995c5d595cdd081b9bdd08199bdd5b99)\n        /* \"#utility.yul\":6048:6066   */\n      0x44\n      dup3\n      add\n        /* \"#utility.yul\":6041:6088   */\n      mstore\n        /* \"#utility.yul\":6105:6123   */\n      0x64\n      add\n        /* \"OdivilleChoices.sol\":3918:3979  require(s_requests[_requestId].paid > 0, \"request not found\") */\n      tag_67\n        /* \"#utility.yul\":5788:6129   */\n      jump\n        /* \"OdivilleChoices.sol\":3918:3979  require(s_requests[_requestId].paid > 0, \"request not found\") */\n    tag_97:\n        /* \"OdivilleChoices.sol\":3989:4017  RequestStatus memory request */\n      0x00\n        /* \"OdivilleChoices.sol\":4020:4042  s_requests[_requestId] */\n      dup5\n      dup2\n      mstore\n        /* \"OdivilleChoices.sol\":4020:4030  s_requests */\n      0x02\n        /* \"OdivilleChoices.sol\":4020:4042  s_requests[_requestId] */\n      0x20\n      dup2\n      dup2\n      mstore\n      0x40\n      dup1\n      dup5\n      keccak256\n        /* \"OdivilleChoices.sol\":3989:4042  RequestStatus memory request = s_requests[_requestId] */\n      dup2\n      mload\n      0x60\n      dup2\n      add\n      dup4\n      mstore\n      dup2\n      sload\n      dup2\n      mstore\n      0x01\n      dup3\n      add\n      sload\n      0xff\n      and\n      iszero\n      iszero\n      dup2\n      dup6\n      add\n      mstore\n      swap4\n      dup2\n      add\n      dup1\n      sload\n      dup4\n      mload\n      dup2\n      dup7\n      mul\n      dup2\n      add\n      dup7\n      add\n      dup6\n      mstore\n      dup2\n      dup2\n      mstore\n        /* \"OdivilleChoices.sol\":4020:4042  s_requests[_requestId] */\n      swap3\n      swap5\n        /* \"OdivilleChoices.sol\":3989:4042  RequestStatus memory request = s_requests[_requestId] */\n      swap4\n      dup7\n      add\n      swap4\n      dup4\n      add\n      dup3\n      dup3\n      dup1\n      iszero\n      tag_100\n      jumpi\n      0x20\n      mul\n      dup3\n      add\n      swap2\n      swap1\n      0x00\n      mstore\n      keccak256(0x00, 0x20)\n      swap1\n    tag_101:\n      dup2\n      sload\n      dup2\n      mstore\n      0x20\n      add\n      swap1\n      0x01\n      add\n      swap1\n      dup1\n      dup4\n      gt\n      tag_101\n      jumpi\n    tag_100:\n      pop\n      pop\n      pop\n      swap2\n      swap1\n      swap3\n      mstore\n      pop\n      pop\n        /* \"OdivilleChoices.sol\":4060:4072  request.paid */\n      dup2\n      mload\n        /* \"OdivilleChoices.sol\":4074:4091  request.fulfilled */\n      0x20\n      dup4\n      add\n      mload\n        /* \"OdivilleChoices.sol\":4093:4112  request.randomWords */\n      0x40\n      swap1\n      swap4\n      add\n      mload\n        /* \"OdivilleChoices.sol\":4060:4072  request.paid */\n      swap1\n      swap9\n        /* \"OdivilleChoices.sol\":4074:4091  request.fulfilled */\n      swap3\n      swap8\n      pop\n        /* \"OdivilleChoices.sol\":4093:4112  request.randomWords */\n      swap6\n      pop\n        /* \"OdivilleChoices.sol\":3737:4120  function getRequestStatus(... */\n      swap1\n      swap4\n      pop\n      pop\n      pop\n      pop\n      jump\t// out\n        /* \"OdivilleChoices.sol\":3342:3731  function getPickStatus(... */\n    tag_51:\n        /* \"OdivilleChoices.sol\":3446:3462  bytes32 pickHash */\n      0x00\n        /* \"OdivilleChoices.sol\":3539:3558  s_picks[_requestId] */\n      dup2\n      dup2\n      mstore\n        /* \"OdivilleChoices.sol\":3539:3546  s_picks */\n      0x03\n        /* \"OdivilleChoices.sol\":3539:3558  s_picks[_requestId] */\n      0x20\n      mstore\n      0x40\n      dup2\n      keccak256\n        /* \"OdivilleChoices.sol\":3539:3569  s_picks[_requestId].pickLength */\n      0x01\n      add\n      sload\n        /* \"OdivilleChoices.sol\":3446:3462  bytes32 pickHash */\n      dup2\n      swap1\n      dup2\n      swap1\n      dup2\n      swap1\n        /* \"OdivilleChoices.sol\":3531:3592  require(s_picks[_requestId].pickLength > 0, \"pick not found\") */\n      tag_103\n      jumpi\n      mload(0x40)\n      shl(0xe5, 0x461bcd)\n      dup2\n      mstore\n        /* \"#utility.yul\":6336:6338   */\n      0x20\n        /* \"OdivilleChoices.sol\":3531:3592  require(s_picks[_requestId].pickLength > 0, \"pick not found\") */\n      0x04\n      dup3\n      add\n        /* \"#utility.yul\":6318:6339   */\n      mstore\n        /* \"#utility.yul\":6375:6377   */\n      0x0e\n        /* \"#utility.yul\":6355:6373   */\n      0x24\n      dup3\n      add\n        /* \"#utility.yul\":6348:6378   */\n      mstore\n      shl(0x92, 0x1c1a58dac81b9bdd08199bdd5b99)\n        /* \"#utility.yul\":6394:6412   */\n      0x44\n      dup3\n      add\n        /* \"#utility.yul\":6387:6431   */\n      mstore\n        /* \"#utility.yul\":6448:6466   */\n      0x64\n      add\n        /* \"OdivilleChoices.sol\":3531:3592  require(s_picks[_requestId].pickLength > 0, \"pick not found\") */\n      tag_67\n        /* \"#utility.yul\":6134:6472   */\n      jump\n        /* \"OdivilleChoices.sol\":3531:3592  require(s_picks[_requestId].pickLength > 0, \"pick not found\") */\n    tag_103:\n      pop\n      pop\n      pop\n        /* \"OdivilleChoices.sol\":3602:3624  PickStatus memory pick */\n      0x00\n        /* \"OdivilleChoices.sol\":3627:3646  s_picks[_requestId] */\n      swap2\n      dup3\n      mstore\n      pop\n        /* \"OdivilleChoices.sol\":3627:3634  s_picks */\n      0x03\n        /* \"OdivilleChoices.sol\":3627:3646  s_picks[_requestId] */\n      0x20\n      dup2\n      dup2\n      mstore\n      0x40\n      swap3\n      dup4\n      swap1\n      keccak256\n        /* \"OdivilleChoices.sol\":3602:3646  PickStatus memory pick = s_picks[_requestId] */\n      dup4\n      mload\n      0x80\n      dup2\n      add\n      dup6\n      mstore\n      dup2\n      sload\n      dup1\n      dup3\n      mstore\n      0x01\n      dup4\n      add\n      sload\n      swap4\n      dup3\n      add\n      dup5\n      swap1\n      mstore\n      0x02\n      dup4\n      add\n      sload\n      0xff\n      and\n      iszero\n      iszero\n      swap6\n      dup3\n      add\n      dup7\n      swap1\n      mstore\n      swap2\n      swap1\n      swap4\n      add\n      sload\n      0x60\n      swap1\n      swap4\n      add\n      dup4\n      swap1\n      mstore\n      swap4\n      swap1\n      swap3\n      swap2\n      swap1\n        /* \"OdivilleChoices.sol\":3342:3731  function getPickStatus(... */\n      jump\t// out\n        /* \"OdivilleChoices.sol\":1522:2467  function commitPickRequest(bytes32 pickHash, uint256 pickLength)... */\n    tag_56:\n        /* \"OdivilleChoices.sol\":1639:1656  uint256 requestId */\n      0x00\n        /* \"@chainlink/contracts/src/v0.8/ConfirmedOwnerWithProposal.sol\":1956:1976  _validateOwnership() */\n      tag_107\n        /* \"@chainlink/contracts/src/v0.8/ConfirmedOwnerWithProposal.sol\":1956:1974  _validateOwnership */\n      tag_80\n        /* \"@chainlink/contracts/src/v0.8/ConfirmedOwnerWithProposal.sol\":1956:1976  _validateOwnership() */\n      jump\t// in\n    tag_107:\n        /* \"OdivilleChoices.sol\":1693:1694  0 */\n      0x00\n        /* \"OdivilleChoices.sol\":1680:1690  pickLength */\n      dup3\n        /* \"OdivilleChoices.sol\":1680:1694  pickLength > 0 */\n      gt\n        /* \"OdivilleChoices.sol\":1672:1740  require(pickLength > 0, \"Must have at least one item to pick from.\") */\n      tag_109\n      jumpi\n      mload(0x40)\n      shl(0xe5, 0x461bcd)\n      dup2\n      mstore\n        /* \"#utility.yul\":6679:6681   */\n      0x20\n        /* \"OdivilleChoices.sol\":1672:1740  require(pickLength > 0, \"Must have at least one item to pick from.\") */\n      0x04\n      dup3\n      add\n        /* \"#utility.yul\":6661:6682   */\n      mstore\n        /* \"#utility.yul\":6718:6720   */\n      0x29\n        /* \"#utility.yul\":6698:6716   */\n      0x24\n      dup3\n      add\n        /* \"#utility.yul\":6691:6721   */\n      mstore\n        /* \"#utility.yul\":6757:6791   */\n      0x4d7573742068617665206174206c65617374206f6e65206974656d20746f2070\n        /* \"#utility.yul\":6737:6755   */\n      0x44\n      dup3\n      add\n        /* \"#utility.yul\":6730:6792   */\n      mstore\n      shl(0xb9, 0x34b1b590333937b697)\n        /* \"#utility.yul\":6808:6826   */\n      0x64\n      dup3\n      add\n        /* \"#utility.yul\":6801:6840   */\n      mstore\n        /* \"#utility.yul\":6857:6876   */\n      0x84\n      add\n        /* \"OdivilleChoices.sol\":1672:1740  require(pickLength > 0, \"Must have at least one item to pick from.\") */\n      tag_67\n        /* \"#utility.yul\":6477:6882   */\n      jump\n        /* \"OdivilleChoices.sol\":1672:1740  require(pickLength > 0, \"Must have at least one item to pick from.\") */\n    tag_109:\n        /* \"OdivilleChoices.sol\":1793:1809  callbackGasLimit */\n      sload(0x06)\n        /* \"OdivilleChoices.sol\":1762:1875  requestRandomness(... */\n      tag_112\n      swap1\n        /* \"OdivilleChoices.sol\":1793:1809  callbackGasLimit */\n      0xffffffff\n      dup1\n      dup3\n      and\n      swap2\n        /* \"OdivilleChoices.sol\":1823:1843  requestConfirmations */\n      0xffff\n      0x0100000000\n      dup3\n      div\n      and\n      swap2\n        /* \"OdivilleChoices.sol\":1857:1865  numWords */\n      0x01000000000000\n      swap1\n      swap2\n      div\n      and\n        /* \"OdivilleChoices.sol\":1762:1779  requestRandomness */\n      tag_113\n        /* \"OdivilleChoices.sol\":1762:1875  requestRandomness(... */\n      jump\t// in\n    tag_112:\n        /* \"OdivilleChoices.sol\":1909:2081  RequestStatus({... */\n      0x40\n      dup1\n      mload\n      0x60\n      dup2\n      add\n      swap2\n      dup3\n      swap1\n      mstore\n        /* \"OdivilleChoices.sol\":1980:1996  callbackGasLimit */\n      sload(0x06)\n      shl(0xe2, 0x10c1b4d5)\n        /* \"OdivilleChoices.sol\":1943:1997  VRF_V2_WRAPPER.calculateRequestPrice(callbackGasLimit) */\n      swap1\n      swap3\n      mstore\n        /* \"OdivilleChoices.sol\":1980:1996  callbackGasLimit */\n      0xffffffff\n      swap1\n      swap2\n      and\n        /* \"OdivilleChoices.sol\":1943:1997  VRF_V2_WRAPPER.calculateRequestPrice(callbackGasLimit) */\n      0x64\n      dup3\n      add\n        /* \"#utility.yul\":7031:7073   */\n      mstore\n        /* \"OdivilleChoices.sol\":1750:1875  requestId = requestRandomness(... */\n      swap1\n      swap2\n      pop\n        /* \"OdivilleChoices.sol\":1909:2081  RequestStatus({... */\n      dup1\n        /* \"OdivilleChoices.sol\":1943:1957  VRF_V2_WRAPPER */\n      immutable(\"0xa75e2cf51d42f4164e4624f425e61448777a748393b6f6a5bcb1d94d1e8e5e98\")\n      sub(shl(0xa0, 0x01), 0x01)\n        /* \"OdivilleChoices.sol\":1943:1979  VRF_V2_WRAPPER.calculateRequestPrice */\n      and\n      0x4306d354\n        /* \"#utility.yul\":7004:7022   */\n      0x84\n      dup4\n      add\n        /* \"OdivilleChoices.sol\":1943:1997  VRF_V2_WRAPPER.calculateRequestPrice(callbackGasLimit) */\n      0x20\n      mload(0x40)\n      dup1\n      dup4\n      sub\n      dup2\n      dup7\n      gas\n      staticcall\n      iszero\n      dup1\n      iszero\n      tag_117\n      jumpi\n      returndatasize\n      0x00\n      dup1\n      returndatacopy\n      revert(0x00, returndatasize)\n    tag_117:\n      pop\n      pop\n      pop\n      pop\n      mload(0x40)\n      returndatasize\n      not(0x1f)\n      0x1f\n      dup3\n      add\n      and\n      dup3\n      add\n      dup1\n      0x40\n      mstore\n      pop\n      dup2\n      add\n      swap1\n      tag_118\n      swap2\n      swap1\n      tag_86\n      jump\t// in\n    tag_118:\n        /* \"OdivilleChoices.sol\":1909:2081  RequestStatus({... */\n      dup2\n      mstore\n        /* \"OdivilleChoices.sol\":2065:2070  false */\n      0x00\n        /* \"OdivilleChoices.sol\":1909:2081  RequestStatus({... */\n      0x20\n      dup1\n      dup4\n      add\n      dup3\n      swap1\n      mstore\n      0x40\n        /* \"OdivilleChoices.sol\":2024:2040  new uint256[](0) */\n      dup1\n      mload\n      dup4\n      dup2\n      mstore\n      dup1\n      dup4\n      add\n      dup3\n      mstore\n        /* \"OdivilleChoices.sol\":1909:2081  RequestStatus({... */\n      swap4\n      dup2\n      add\n      swap4\n      swap1\n      swap4\n      mstore\n        /* \"OdivilleChoices.sol\":1885:1906  s_requests[requestId] */\n      dup5\n      dup3\n      mstore\n        /* \"OdivilleChoices.sol\":1885:1895  s_requests */\n      0x02\n        /* \"OdivilleChoices.sol\":1885:1906  s_requests[requestId] */\n      dup1\n      dup3\n      mstore\n      swap2\n      dup4\n      swap1\n      keccak256\n        /* \"OdivilleChoices.sol\":1885:2081  s_requests[requestId] = RequestStatus({... */\n      dup5\n      mload\n      dup2\n      sstore\n      dup5\n      dup3\n      add\n      mload\n      0x01\n      dup3\n      add\n      dup1\n      sload\n      not(0xff)\n      and\n      swap2\n      iszero\n      iszero\n      swap2\n      swap1\n      swap2\n      or\n      swap1\n      sstore\n      swap3\n      dup5\n      add\n      mload\n      dup1\n      mload\n      tag_123\n      swap4\n      dup6\n      add\n      swap3\n      swap2\n      swap1\n      swap2\n      add\n      swap1\n      tag_124\n      jump\t// in\n    tag_123:\n      pop\n      pop\n        /* \"OdivilleChoices.sol\":2112:2255  PickStatus({... */\n      0x40\n      dup1\n      mload\n      0x80\n      dup2\n      add\n      dup3\n      mstore\n      dup6\n      dup2\n      mstore\n      0x20\n      dup1\n      dup3\n      add\n      dup7\n      dup2\n      mstore\n      0x00\n      dup4\n      dup6\n      add\n      dup2\n      dup2\n      mstore\n      0x60\n      dup6\n      add\n      dup3\n      dup2\n      mstore\n        /* \"OdivilleChoices.sol\":2091:2109  s_picks[requestId] */\n      dup9\n      dup4\n      mstore\n        /* \"OdivilleChoices.sol\":2091:2098  s_picks */\n      0x03\n        /* \"OdivilleChoices.sol\":2091:2109  s_picks[requestId] */\n      dup1\n      dup7\n      mstore\n      dup8\n      dup5\n      keccak256\n        /* \"OdivilleChoices.sol\":2091:2255  s_picks[requestId] = PickStatus({... */\n      swap7\n      mload\n      dup8\n      sstore\n      swap4\n      mload\n        /* \"OdivilleChoices.sol\":2112:2255  PickStatus({... */\n      0x01\n        /* \"OdivilleChoices.sol\":2091:2255  s_picks[requestId] = PickStatus({... */\n      dup1\n      dup9\n      add\n      swap2\n      swap1\n      swap2\n      sstore\n      swap2\n      mload\n      0x02\n      dup8\n      add\n      dup1\n      sload\n      not(0xff)\n      and\n      swap2\n      iszero\n      iszero\n      swap2\n      swap1\n      swap2\n      or\n      swap1\n      sstore\n      mload\n      swap5\n      swap1\n      swap3\n      add\n      swap4\n      swap1\n      swap4\n      sstore\n        /* \"OdivilleChoices.sol\":2265:2275  requestIds */\n      0x04\n        /* \"OdivilleChoices.sol\":2265:2291  requestIds.push(requestId) */\n      dup1\n      sload\n      swap2\n      dup3\n      add\n      dup2\n      sstore\n      swap1\n      swap3\n      mstore\n      0x8a35acfbc15ff81a39ae7d344fd709f28e8600b4aa8c65c6b64bfe7fe36bd19b\n      swap1\n      swap2\n      add\n      dup5\n      swap1\n      sstore\n        /* \"OdivilleChoices.sol\":2301:2314  lastRequestId */\n      0x05\n        /* \"OdivilleChoices.sol\":2301:2326  lastRequestId = requestId */\n      dup5\n      swap1\n      sstore\n        /* \"OdivilleChoices.sol\":2364:2372  numWords */\n      sload(0x06)\n        /* \"OdivilleChoices.sol\":2341:2373  RequestSent(requestId, numWords) */\n      dup3\n      mload\n        /* \"#utility.yul\":7256:7281   */\n      dup6\n      dup2\n      mstore\n        /* \"OdivilleChoices.sol\":2364:2372  numWords */\n      0x01000000000000\n      swap1\n      swap2\n      div\n      0xffffffff\n      and\n        /* \"#utility.yul\":7297:7315   */\n      swap2\n      dup2\n      add\n        /* \"#utility.yul\":7290:7341   */\n      swap2\n      swap1\n      swap2\n      mstore\n        /* \"OdivilleChoices.sol\":2341:2373  RequestSent(requestId, numWords) */\n      0xcc58b13ad3eab50626c6a6300b1d139cd6ebb1688a7cced9461c2f7e762665ee\n      swap3\n      pop\n        /* \"#utility.yul\":7229:7247   */\n      add\n        /* \"OdivilleChoices.sol\":2341:2373  RequestSent(requestId, numWords) */\n      mload(0x40)\n      dup1\n      swap2\n      sub\n      swap1\n      log1\n        /* \"OdivilleChoices.sol\":2388:2434  PickCommitted(pickHash, pickLength, requestId) */\n      0x40\n      dup1\n      mload\n        /* \"#utility.yul\":7554:7579   */\n      dup5\n      dup2\n      mstore\n        /* \"#utility.yul\":7610:7612   */\n      0x20\n        /* \"#utility.yul\":7595:7613   */\n      dup2\n      add\n        /* \"#utility.yul\":7588:7622   */\n      dup5\n      swap1\n      mstore\n        /* \"#utility.yul\":7638:7656   */\n      swap1\n      dup2\n      add\n        /* \"#utility.yul\":7631:7665   */\n      dup3\n      swap1\n      mstore\n        /* \"OdivilleChoices.sol\":2388:2434  PickCommitted(pickHash, pickLength, requestId) */\n      0xfd817988341ec7059beeb40c29364215c554a68b8d479fc8908287c5b4d63a27\n      swap1\n        /* \"#utility.yul\":7542:7544   */\n      0x60\n        /* \"#utility.yul\":7527:7545   */\n      add\n        /* \"OdivilleChoices.sol\":2388:2434  PickCommitted(pickHash, pickLength, requestId) */\n      mload(0x40)\n      dup1\n      swap2\n      sub\n      swap1\n      log1\n        /* \"OdivilleChoices.sol\":1522:2467  function commitPickRequest(bytes32 pickHash, uint256 pickLength)... */\n      swap3\n      swap2\n      pop\n      pop\n      jump\t// out\n        /* \"@chainlink/contracts/src/v0.8/ConfirmedOwnerWithProposal.sol\":826:924  function transferOwnership(address to) public override onlyOwner {... */\n    tag_61:\n        /* \"@chainlink/contracts/src/v0.8/ConfirmedOwnerWithProposal.sol\":1956:1976  _validateOwnership() */\n      tag_131\n        /* \"@chainlink/contracts/src/v0.8/ConfirmedOwnerWithProposal.sol\":1956:1974  _validateOwnership */\n      tag_80\n        /* \"@chainlink/contracts/src/v0.8/ConfirmedOwnerWithProposal.sol\":1956:1976  _validateOwnership() */\n      jump\t// in\n    tag_131:\n        /* \"@chainlink/contracts/src/v0.8/ConfirmedOwnerWithProposal.sol\":897:919  _transferOwnership(to) */\n      tag_93\n        /* \"@chainlink/contracts/src/v0.8/ConfirmedOwnerWithProposal.sol\":916:918  to */\n      dup2\n        /* \"@chainlink/contracts/src/v0.8/ConfirmedOwnerWithProposal.sol\":897:915  _transferOwnership */\n      tag_134\n        /* \"@chainlink/contracts/src/v0.8/ConfirmedOwnerWithProposal.sol\":897:919  _transferOwnership(to) */\n      jump\t// in\n        /* \"OdivilleChoices.sol\":2473:3336  function fulfillRandomWords(... */\n    tag_70:\n        /* \"OdivilleChoices.sol\":2640:2641  0 */\n      0x00\n        /* \"OdivilleChoices.sol\":2610:2632  s_requests[_requestId] */\n      dup3\n      dup2\n      mstore\n        /* \"OdivilleChoices.sol\":2610:2620  s_requests */\n      0x02\n        /* \"OdivilleChoices.sol\":2610:2632  s_requests[_requestId] */\n      0x20\n      mstore\n      0x40\n      swap1\n      keccak256\n        /* \"OdivilleChoices.sol\":2610:2637  s_requests[_requestId].paid */\n      sload\n        /* \"OdivilleChoices.sol\":2602:2663  require(s_requests[_requestId].paid > 0, \"request not found\") */\n      tag_136\n      jumpi\n      mload(0x40)\n      shl(0xe5, 0x461bcd)\n      dup2\n      mstore\n        /* \"#utility.yul\":5990:5992   */\n      0x20\n        /* \"OdivilleChoices.sol\":2602:2663  require(s_requests[_requestId].paid > 0, \"request not found\") */\n      0x04\n      dup3\n      add\n        /* \"#utility.yul\":5972:5993   */\n      mstore\n        /* \"#utility.yul\":6029:6031   */\n      0x11\n        /* \"#utility.yul\":6009:6027   */\n      0x24\n      dup3\n      add\n        /* \"#utility.yul\":6002:6032   */\n      mstore\n      shl(0x7a, 0x1c995c5d595cdd081b9bdd08199bdd5b99)\n        /* \"#utility.yul\":6048:6066   */\n      0x44\n      dup3\n      add\n        /* \"#utility.yul\":6041:6088   */\n      mstore\n        /* \"#utility.yul\":6105:6123   */\n      0x64\n      add\n        /* \"OdivilleChoices.sol\":2602:2663  require(s_requests[_requestId].paid > 0, \"request not found\") */\n      tag_67\n        /* \"#utility.yul\":5788:6129   */\n      jump\n        /* \"OdivilleChoices.sol\":2602:2663  require(s_requests[_requestId].paid > 0, \"request not found\") */\n    tag_136:\n        /* \"OdivilleChoices.sol\":2714:2715  0 */\n      0x00\n        /* \"OdivilleChoices.sol\":2681:2700  s_picks[_requestId] */\n      dup3\n      dup2\n      mstore\n        /* \"OdivilleChoices.sol\":2681:2688  s_picks */\n      0x03\n        /* \"OdivilleChoices.sol\":2681:2700  s_picks[_requestId] */\n      0x20\n      mstore\n      0x40\n      swap1\n      keccak256\n        /* \"OdivilleChoices.sol\":2681:2711  s_picks[_requestId].pickLength */\n      0x01\n      add\n      sload\n        /* \"OdivilleChoices.sol\":2673:2734  require(s_picks[_requestId].pickLength > 0, \"pick not found\") */\n      tag_138\n      jumpi\n      mload(0x40)\n      shl(0xe5, 0x461bcd)\n      dup2\n      mstore\n        /* \"#utility.yul\":6336:6338   */\n      0x20\n        /* \"OdivilleChoices.sol\":2673:2734  require(s_picks[_requestId].pickLength > 0, \"pick not found\") */\n      0x04\n      dup3\n      add\n        /* \"#utility.yul\":6318:6339   */\n      mstore\n        /* \"#utility.yul\":6375:6377   */\n      0x0e\n        /* \"#utility.yul\":6355:6373   */\n      0x24\n      dup3\n      add\n        /* \"#utility.yul\":6348:6378   */\n      mstore\n      shl(0x92, 0x1c1a58dac81b9bdd08199bdd5b99)\n        /* \"#utility.yul\":6394:6412   */\n      0x44\n      dup3\n      add\n        /* \"#utility.yul\":6387:6431   */\n      mstore\n        /* \"#utility.yul\":6448:6466   */\n      0x64\n      add\n        /* \"OdivilleChoices.sol\":2673:2734  require(s_picks[_requestId].pickLength > 0, \"pick not found\") */\n      tag_67\n        /* \"#utility.yul\":6134:6472   */\n      jump\n        /* \"OdivilleChoices.sol\":2673:2734  require(s_picks[_requestId].pickLength > 0, \"pick not found\") */\n    tag_138:\n        /* \"OdivilleChoices.sol\":2745:2767  s_requests[_requestId] */\n      0x00\n      dup3\n      dup2\n      mstore\n        /* \"OdivilleChoices.sol\":2745:2755  s_requests */\n      0x02\n        /* \"OdivilleChoices.sol\":2745:2767  s_requests[_requestId] */\n      0x20\n      dup2\n      dup2\n      mstore\n      0x40\n      swap1\n      swap3\n      keccak256\n        /* \"OdivilleChoices.sol\":2780:2784  true */\n      0x01\n        /* \"OdivilleChoices.sol\":2745:2777  s_requests[_requestId].fulfilled */\n      dup2\n      dup2\n      add\n        /* \"OdivilleChoices.sol\":2745:2784  s_requests[_requestId].fulfilled = true */\n      dup1\n      sload\n      not(0xff)\n      and\n      swap1\n      swap2\n      or\n      swap1\n      sstore\n        /* \"OdivilleChoices.sol\":2794:2843  s_requests[_requestId].randomWords = _randomWords */\n      dup4\n      mload\n      tag_140\n      swap4\n        /* \"OdivilleChoices.sol\":2794:2828  s_requests[_requestId].randomWords */\n      swap2\n      swap1\n      swap3\n      add\n      swap2\n        /* \"OdivilleChoices.sol\":2794:2843  s_requests[_requestId].randomWords = _randomWords */\n      swap1\n      dup5\n      add\n      swap1\n      tag_124\n      jump\t// in\n    tag_140:\n      pop\n        /* \"OdivilleChoices.sol\":2854:2874  uint256 addressIndex */\n      0x00\n        /* \"OdivilleChoices.sol\":2895:2914  s_picks[_requestId] */\n      dup3\n      dup2\n      mstore\n        /* \"OdivilleChoices.sol\":2895:2902  s_picks */\n      0x03\n        /* \"OdivilleChoices.sol\":2895:2914  s_picks[_requestId] */\n      0x20\n      mstore\n      0x40\n      dup2\n      keccak256\n        /* \"OdivilleChoices.sol\":2895:2925  s_picks[_requestId].pickLength */\n      0x01\n      add\n      sload\n        /* \"OdivilleChoices.sol\":2877:2892  _randomWords[0] */\n      dup3\n      mload\n        /* \"OdivilleChoices.sol\":2877:2889  _randomWords */\n      dup4\n      swap1\n        /* \"OdivilleChoices.sol\":2854:2874  uint256 addressIndex */\n      dup4\n      swap1\n        /* \"OdivilleChoices.sol\":2877:2892  _randomWords[0] */\n      tag_142\n      jumpi\n      tag_142\n      tag_143\n      jump\t// in\n    tag_142:\n      0x20\n      mul\n      0x20\n      add\n      add\n      mload\n        /* \"OdivilleChoices.sol\":2877:2925  _randomWords[0] % s_picks[_requestId].pickLength */\n      tag_144\n      swap2\n      swap1\n      tag_145\n      jump\t// in\n    tag_144:\n        /* \"OdivilleChoices.sol\":2935:2954  s_picks[_requestId] */\n      0x00\n      dup5\n      dup2\n      mstore\n        /* \"OdivilleChoices.sol\":2935:2942  s_picks */\n      0x03\n        /* \"OdivilleChoices.sol\":2935:2954  s_picks[_requestId] */\n      0x20\n      dup2\n      dup2\n      mstore\n      0x40\n      dup1\n      dup5\n      keccak256\n        /* \"OdivilleChoices.sol\":2935:2964  s_picks[_requestId].fulfilled */\n      0x02\n      dup1\n      dup3\n      add\n        /* \"OdivilleChoices.sol\":2935:2971  s_picks[_requestId].fulfilled = true */\n      dup1\n      sload\n      not(0xff)\n      and\n        /* \"OdivilleChoices.sol\":2967:2971  true */\n      0x01\n        /* \"OdivilleChoices.sol\":2935:2971  s_picks[_requestId].fulfilled = true */\n      or\n      swap1\n      sstore\n        /* \"OdivilleChoices.sol\":2981:3007  s_picks[_requestId].result */\n      swap4\n      add\n        /* \"OdivilleChoices.sol\":2981:3022  s_picks[_requestId].result = addressIndex */\n      dup6\n      swap1\n      sstore\n        /* \"OdivilleChoices.sol\":3118:3140  s_requests[_requestId] */\n      swap2\n      swap1\n      mstore\n      swap1\n      dup2\n      swap1\n      keccak256\n        /* \"OdivilleChoices.sol\":3118:3145  s_requests[_requestId].paid */\n      sload\n        /* \"OdivilleChoices.sol\":3038:3155  RequestFulfilled(... */\n      swap1\n      mload\n        /* \"OdivilleChoices.sol\":2854:2925  uint256 addressIndex = _randomWords[0] % s_picks[_requestId].pickLength */\n      swap2\n      swap3\n      pop\n        /* \"OdivilleChoices.sol\":3038:3155  RequestFulfilled(... */\n      0x147eb1ff0c82f87f2b03e2c43f5a36488ff63ec6b730195fde4605f612f8db51\n      swap2\n      tag_146\n      swap2\n        /* \"OdivilleChoices.sol\":2943:2953  _requestId */\n      dup7\n      swap2\n        /* \"OdivilleChoices.sol\":3092:3104  _randomWords */\n      dup7\n      swap2\n        /* \"OdivilleChoices.sol\":3118:3145  s_requests[_requestId].paid */\n      swap1\n        /* \"OdivilleChoices.sol\":3038:3155  RequestFulfilled(... */\n      tag_147\n      jump\t// in\n    tag_146:\n      mload(0x40)\n      dup1\n      swap2\n      sub\n      swap1\n      log1\n        /* \"OdivilleChoices.sol\":3197:3216  s_picks[_requestId] */\n      0x00\n      dup4\n      dup2\n      mstore\n        /* \"OdivilleChoices.sol\":3197:3204  s_picks */\n      0x03\n        /* \"OdivilleChoices.sol\":3197:3216  s_picks[_requestId] */\n      0x20\n      swap1\n      dup2\n      mstore\n      0x40\n      swap2\n      dup3\n      swap1\n      keccak256\n        /* \"OdivilleChoices.sol\":3197:3225  s_picks[_requestId].pickHash */\n      dup1\n      sload\n        /* \"OdivilleChoices.sol\":3239:3269  s_picks[_requestId].pickLength */\n      0x01\n      swap1\n      swap2\n      add\n      sload\n        /* \"OdivilleChoices.sol\":3170:3329  PickFulfilled(... */\n      dup4\n      mload\n        /* \"#utility.yul\":8661:8686   */\n      swap2\n      dup3\n      mstore\n        /* \"#utility.yul\":8702:8720   */\n      swap2\n      dup2\n      add\n        /* \"#utility.yul\":8695:8729   */\n      swap2\n      swap1\n      swap2\n      mstore\n        /* \"#utility.yul\":8745:8763   */\n      swap1\n      dup2\n      add\n        /* \"#utility.yul\":8738:8772   */\n      dup3\n      swap1\n      mstore\n        /* \"#utility.yul\":8803:8805   */\n      0x60\n        /* \"#utility.yul\":8788:8806   */\n      dup2\n      add\n        /* \"#utility.yul\":8781:8815   */\n      dup5\n      swap1\n      mstore\n        /* \"OdivilleChoices.sol\":3170:3329  PickFulfilled(... */\n      0x568b75c41ae0ab8d80bc8223356841d584e86546b66cb1ee87af822c8251d61b\n      swap1\n        /* \"#utility.yul\":8648:8651   */\n      0x80\n        /* \"#utility.yul\":8633:8652   */\n      add\n        /* \"OdivilleChoices.sol\":3170:3329  PickFulfilled(... */\n      mload(0x40)\n      dup1\n      swap2\n      sub\n      swap1\n      log1\n        /* \"OdivilleChoices.sol\":2592:3336  {... */\n      pop\n        /* \"OdivilleChoices.sol\":2473:3336  function fulfillRandomWords(... */\n      pop\n      pop\n      jump\t// out\n        /* \"@chainlink/contracts/src/v0.8/ConfirmedOwnerWithProposal.sol\":1730:1841  function _validateOwnership() internal view {... */\n    tag_80:\n        /* \"@chainlink/contracts/src/v0.8/ConfirmedOwnerWithProposal.sol\":1802:1809  s_owner */\n      and(sub(shl(0xa0, 0x01), 0x01), sload(0x00))\n        /* \"@chainlink/contracts/src/v0.8/ConfirmedOwnerWithProposal.sol\":1788:1798  msg.sender */\n      caller\n        /* \"@chainlink/contracts/src/v0.8/ConfirmedOwnerWithProposal.sol\":1788:1809  msg.sender == s_owner */\n      eq\n        /* \"@chainlink/contracts/src/v0.8/ConfirmedOwnerWithProposal.sol\":1780:1836  require(msg.sender == s_owner, \"Only callable by owner\") */\n      tag_151\n      jumpi\n      mload(0x40)\n      shl(0xe5, 0x461bcd)\n      dup2\n      mstore\n        /* \"#utility.yul\":9028:9030   */\n      0x20\n        /* \"@chainlink/contracts/src/v0.8/ConfirmedOwnerWithProposal.sol\":1780:1836  require(msg.sender == s_owner, \"Only callable by owner\") */\n      0x04\n      dup3\n      add\n        /* \"#utility.yul\":9010:9031   */\n      mstore\n        /* \"#utility.yul\":9067:9069   */\n      0x16\n        /* \"#utility.yul\":9047:9065   */\n      0x24\n      dup3\n      add\n        /* \"#utility.yul\":9040:9070   */\n      mstore\n      shl(0x51, 0x27b7363c9031b0b63630b1363290313c9037bbb732b9)\n        /* \"#utility.yul\":9086:9104   */\n      0x44\n      dup3\n      add\n        /* \"#utility.yul\":9079:9131   */\n      mstore\n        /* \"#utility.yul\":9148:9166   */\n      0x64\n      add\n        /* \"@chainlink/contracts/src/v0.8/ConfirmedOwnerWithProposal.sol\":1780:1836  require(msg.sender == s_owner, \"Only callable by owner\") */\n      tag_67\n        /* \"#utility.yul\":8826:9172   */\n      jump\n        /* \"@chainlink/contracts/src/v0.8/ConfirmedOwnerWithProposal.sol\":1780:1836  require(msg.sender == s_owner, \"Only callable by owner\") */\n    tag_151:\n        /* \"@chainlink/contracts/src/v0.8/ConfirmedOwnerWithProposal.sol\":1730:1841  function _validateOwnership() internal view {... */\n      jump\t// out\n        /* \"@chainlink/contracts/src/v0.8/VRFV2WrapperConsumerBase.sol\":2645:3044  function requestRandomness(... */\n    tag_113:\n        /* \"@chainlink/contracts/src/v0.8/VRFV2WrapperConsumerBase.sol\":2864:2919  VRF_V2_WRAPPER.calculateRequestPrice(_callbackGasLimit) */\n      mload(0x40)\n      shl(0xe2, 0x10c1b4d5)\n      dup2\n      mstore\n      0xffffffff\n        /* \"#utility.yul\":7049:7072   */\n      dup5\n      and\n        /* \"@chainlink/contracts/src/v0.8/VRFV2WrapperConsumerBase.sol\":2864:2919  VRF_V2_WRAPPER.calculateRequestPrice(_callbackGasLimit) */\n      0x04\n      dup3\n      add\n        /* \"#utility.yul\":7031:7073   */\n      mstore\n        /* \"@chainlink/contracts/src/v0.8/VRFV2WrapperConsumerBase.sol\":2780:2797  uint256 requestId */\n      0x00\n      swap1\n      sub(shl(0xa0, 0x01), 0x01)\n        /* \"@chainlink/contracts/src/v0.8/VRFV2WrapperConsumerBase.sol\":2805:2809  LINK */\n      immutable(\"0x266b1640ade99b2f22d24bd1f0c6c2736890e0398a5a0b97b63a35856ae65c2b\")\n        /* \"@chainlink/contracts/src/v0.8/VRFV2WrapperConsumerBase.sol\":2805:2825  LINK.transferAndCall */\n      dup2\n      and\n      swap2\n      0x4000aea0\n      swap2\n        /* \"@chainlink/contracts/src/v0.8/VRFV2WrapperConsumerBase.sol\":2841:2855  VRF_V2_WRAPPER */\n      immutable(\"0xa75e2cf51d42f4164e4624f425e61448777a748393b6f6a5bcb1d94d1e8e5e98\")\n      swap2\n        /* \"@chainlink/contracts/src/v0.8/VRFV2WrapperConsumerBase.sol\":2864:2900  VRF_V2_WRAPPER.calculateRequestPrice */\n      swap1\n      dup3\n      and\n      swap1\n      0x4306d354\n      swap1\n        /* \"#utility.yul\":7004:7022   */\n      0x24\n      add\n        /* \"@chainlink/contracts/src/v0.8/VRFV2WrapperConsumerBase.sol\":2864:2919  VRF_V2_WRAPPER.calculateRequestPrice(_callbackGasLimit) */\n      0x20\n      mload(0x40)\n      dup1\n      dup4\n      sub\n      dup2\n      dup7\n      gas\n      staticcall\n      iszero\n      dup1\n      iszero\n      tag_157\n      jumpi\n      returndatasize\n      0x00\n      dup1\n      returndatacopy\n      revert(0x00, returndatasize)\n    tag_157:\n      pop\n      pop\n      pop\n      pop\n      mload(0x40)\n      returndatasize\n      not(0x1f)\n      0x1f\n      dup3\n      add\n      and\n      dup3\n      add\n      dup1\n      0x40\n      mstore\n      pop\n      dup2\n      add\n      swap1\n      tag_158\n      swap2\n      swap1\n      tag_86\n      jump\t// in\n    tag_158:\n        /* \"@chainlink/contracts/src/v0.8/VRFV2WrapperConsumerBase.sol\":2927:2990  abi.encode(_callbackGasLimit, _requestConfirmations, _numWords) */\n      0x40\n      dup1\n      mload\n        /* \"#utility.yul\":9383:9393   */\n      0xffffffff\n        /* \"#utility.yul\":9420:9435   */\n      dup1\n      dup12\n      and\n        /* \"@chainlink/contracts/src/v0.8/VRFV2WrapperConsumerBase.sol\":2927:2990  abi.encode(_callbackGasLimit, _requestConfirmations, _numWords) */\n      0x20\n      dup4\n      add\n        /* \"#utility.yul\":9402:9436   */\n      mstore\n        /* \"#utility.yul\":9484:9490   */\n      0xffff\n        /* \"#utility.yul\":9472:9491   */\n      dup11\n      and\n        /* \"#utility.yul\":9452:9470   */\n      swap3\n      dup3\n      add\n        /* \"#utility.yul\":9445:9492   */\n      swap3\n      swap1\n      swap3\n      mstore\n        /* \"#utility.yul\":9528:9543   */\n      swap1\n      dup8\n      and\n        /* \"#utility.yul\":9508:9526   */\n      0x60\n      dup3\n      add\n        /* \"#utility.yul\":9501:9544   */\n      mstore\n        /* \"#utility.yul\":9346:9364   */\n      0x80\n      add\n        /* \"@chainlink/contracts/src/v0.8/VRFV2WrapperConsumerBase.sol\":2927:2990  abi.encode(_callbackGasLimit, _requestConfirmations, _numWords) */\n      mload(0x40)\n      0x20\n      dup2\n      dup4\n      sub\n      sub\n      dup2\n      mstore\n      swap1\n      0x40\n      mstore\n        /* \"@chainlink/contracts/src/v0.8/VRFV2WrapperConsumerBase.sol\":2805:2996  LINK.transferAndCall(... */\n      mload(0x40)\n      dup5\n      0xffffffff\n      and\n      0xe0\n      shl\n      dup2\n      mstore\n      0x04\n      add\n      tag_161\n      swap4\n      swap3\n      swap2\n      swap1\n      tag_162\n      jump\t// in\n    tag_161:\n      0x20\n      mload(0x40)\n      dup1\n      dup4\n      sub\n      dup2\n      0x00\n      dup8\n      gas\n      call\n      iszero\n      dup1\n      iszero\n      tag_164\n      jumpi\n      returndatasize\n      0x00\n      dup1\n      returndatacopy\n      revert(0x00, returndatasize)\n    tag_164:\n      pop\n      pop\n      pop\n      pop\n      mload(0x40)\n      returndatasize\n      not(0x1f)\n      0x1f\n      dup3\n      add\n      and\n      dup3\n      add\n      dup1\n      0x40\n      mstore\n      pop\n      dup2\n      add\n      swap1\n      tag_165\n      swap2\n      swap1\n      tag_92\n      jump\t// in\n    tag_165:\n      pop\n        /* \"@chainlink/contracts/src/v0.8/VRFV2WrapperConsumerBase.sol\":3009:3023  VRF_V2_WRAPPER */\n      immutable(\"0xa75e2cf51d42f4164e4624f425e61448777a748393b6f6a5bcb1d94d1e8e5e98\")\n      sub(shl(0xa0, 0x01), 0x01)\n        /* \"@chainlink/contracts/src/v0.8/VRFV2WrapperConsumerBase.sol\":3009:3037  VRF_V2_WRAPPER.lastRequestId */\n      and\n      0xfc2a88c3\n        /* \"@chainlink/contracts/src/v0.8/VRFV2WrapperConsumerBase.sol\":3009:3039  VRF_V2_WRAPPER.lastRequestId() */\n      mload(0x40)\n      dup2\n      0xffffffff\n      and\n      0xe0\n      shl\n      dup2\n      mstore\n      0x04\n      add\n      0x20\n      mload(0x40)\n      dup1\n      dup4\n      sub\n      dup2\n      dup7\n      gas\n      staticcall\n      iszero\n      dup1\n      iszero\n      tag_167\n      jumpi\n      returndatasize\n      0x00\n      dup1\n      returndatacopy\n      revert(0x00, returndatasize)\n    tag_167:\n      pop\n      pop\n      pop\n      pop\n      mload(0x40)\n      returndatasize\n      not(0x1f)\n      0x1f\n      dup3\n      add\n      and\n      dup3\n      add\n      dup1\n      0x40\n      mstore\n      pop\n      dup2\n      add\n      swap1\n      tag_168\n      swap2\n      swap1\n      tag_86\n      jump\t// in\n    tag_168:\n        /* \"@chainlink/contracts/src/v0.8/VRFV2WrapperConsumerBase.sol\":3002:3039  return VRF_V2_WRAPPER.lastRequestId() */\n      swap5\n        /* \"@chainlink/contracts/src/v0.8/VRFV2WrapperConsumerBase.sol\":2645:3044  function requestRandomness(... */\n      swap4\n      pop\n      pop\n      pop\n      pop\n      jump\t// out\n        /* \"@chainlink/contracts/src/v0.8/ConfirmedOwnerWithProposal.sol\":1497:1685  function _transferOwnership(address to) private {... */\n    tag_134:\n        /* \"@chainlink/contracts/src/v0.8/ConfirmedOwnerWithProposal.sol\":1565:1575  msg.sender */\n      caller\n      sub(shl(0xa0, 0x01), 0x01)\n        /* \"@chainlink/contracts/src/v0.8/ConfirmedOwnerWithProposal.sol\":1559:1575  to != msg.sender */\n      dup3\n      and\n      sub\n        /* \"@chainlink/contracts/src/v0.8/ConfirmedOwnerWithProposal.sol\":1551:1603  require(to != msg.sender, \"Cannot transfer to self\") */\n      tag_170\n      jumpi\n      mload(0x40)\n      shl(0xe5, 0x461bcd)\n      dup2\n      mstore\n        /* \"#utility.yul\":10479:10481   */\n      0x20\n        /* \"@chainlink/contracts/src/v0.8/ConfirmedOwnerWithProposal.sol\":1551:1603  require(to != msg.sender, \"Cannot transfer to self\") */\n      0x04\n      dup3\n      add\n        /* \"#utility.yul\":10461:10482   */\n      mstore\n        /* \"#utility.yul\":10518:10520   */\n      0x17\n        /* \"#utility.yul\":10498:10516   */\n      0x24\n      dup3\n      add\n        /* \"#utility.yul\":10491:10521   */\n      mstore\n        /* \"#utility.yul\":10557:10582   */\n      0x43616e6e6f74207472616e7366657220746f2073656c66000000000000000000\n        /* \"#utility.yul\":10537:10555   */\n      0x44\n      dup3\n      add\n        /* \"#utility.yul\":10530:10583   */\n      mstore\n        /* \"#utility.yul\":10600:10618   */\n      0x64\n      add\n        /* \"@chainlink/contracts/src/v0.8/ConfirmedOwnerWithProposal.sol\":1551:1603  require(to != msg.sender, \"Cannot transfer to self\") */\n      tag_67\n        /* \"#utility.yul\":10277:10624   */\n      jump\n        /* \"@chainlink/contracts/src/v0.8/ConfirmedOwnerWithProposal.sol\":1551:1603  require(to != msg.sender, \"Cannot transfer to self\") */\n    tag_170:\n        /* \"@chainlink/contracts/src/v0.8/ConfirmedOwnerWithProposal.sol\":1610:1624  s_pendingOwner */\n      0x01\n        /* \"@chainlink/contracts/src/v0.8/ConfirmedOwnerWithProposal.sol\":1610:1629  s_pendingOwner = to */\n      dup1\n      sload\n      not(sub(shl(0xa0, 0x01), 0x01))\n      and\n      sub(shl(0xa0, 0x01), 0x01)\n      dup4\n      dup2\n      and\n      swap2\n      dup3\n      or\n      swap1\n      swap3\n      sstore\n      0x00\n        /* \"@chainlink/contracts/src/v0.8/ConfirmedOwnerWithProposal.sol\":1668:1675  s_owner */\n      dup1\n      sload\n        /* \"@chainlink/contracts/src/v0.8/ConfirmedOwnerWithProposal.sol\":1641:1680  OwnershipTransferRequested(s_owner, to) */\n      mload(0x40)\n        /* \"@chainlink/contracts/src/v0.8/ConfirmedOwnerWithProposal.sol\":1610:1629  s_pendingOwner = to */\n      swap3\n      swap4\n        /* \"@chainlink/contracts/src/v0.8/ConfirmedOwnerWithProposal.sol\":1668:1675  s_owner */\n      and\n      swap2\n        /* \"@chainlink/contracts/src/v0.8/ConfirmedOwnerWithProposal.sol\":1641:1680  OwnershipTransferRequested(s_owner, to) */\n      0xed8889f560326eb138920d842192f0eb3dd22b4f139c87a2c57538e05bae1278\n      swap2\n      swap1\n      log3\n        /* \"@chainlink/contracts/src/v0.8/ConfirmedOwnerWithProposal.sol\":1497:1685  function _transferOwnership(address to) private {... */\n      pop\n      jump\t// out\n    tag_124:\n      dup3\n      dup1\n      sload\n      dup3\n      dup3\n      sstore\n      swap1\n      0x00\n      mstore\n      keccak256(0x00, 0x20)\n      swap1\n      dup2\n      add\n      swap3\n      dup3\n      iszero\n      tag_175\n      jumpi\n      swap2\n      0x20\n      mul\n      dup3\n      add\n    tag_174:\n      dup3\n      dup2\n      gt\n      iszero\n      tag_175\n      jumpi\n      dup3\n      mload\n      dup3\n      sstore\n      swap2\n      0x20\n      add\n      swap2\n      swap1\n      0x01\n      add\n      swap1\n      jump(tag_174)\n    tag_175:\n      pop\n      tag_176\n      swap3\n      swap2\n      pop\n      tag_177\n      jump\t// in\n    tag_176:\n      pop\n      swap1\n      jump\t// out\n    tag_177:\n    tag_178:\n      dup1\n      dup3\n      gt\n      iszero\n      tag_176\n      jumpi\n      0x00\n      dup2\n      sstore\n      0x01\n      add\n      jump(tag_178)\n        /* \"#utility.yul\":14:141   */\n    tag_121:\n        /* \"#utility.yul\":75:85   */\n      0x4e487b71\n        /* \"#utility.yul\":70:73   */\n      0xe0\n        /* \"#utility.yul\":66:86   */\n      shl\n        /* \"#utility.yul\":63:64   */\n      0x00\n        /* \"#utility.yul\":56:87   */\n      mstore\n        /* \"#utility.yul\":106:110   */\n      0x41\n        /* \"#utility.yul\":103:104   */\n      0x04\n        /* \"#utility.yul\":96:111   */\n      mstore\n        /* \"#utility.yul\":130:134   */\n      0x24\n        /* \"#utility.yul\":127:128   */\n      0x00\n        /* \"#utility.yul\":120:135   */\n      revert\n        /* \"#utility.yul\":146:1329   */\n    tag_18:\n        /* \"#utility.yul\":239:245   */\n      0x00\n        /* \"#utility.yul\":247:253   */\n      dup1\n        /* \"#utility.yul\":300:302   */\n      0x40\n        /* \"#utility.yul\":288:297   */\n      dup4\n        /* \"#utility.yul\":279:286   */\n      dup6\n        /* \"#utility.yul\":275:298   */\n      sub\n        /* \"#utility.yul\":271:303   */\n      slt\n        /* \"#utility.yul\":268:320   */\n      iszero\n      tag_184\n      jumpi\n        /* \"#utility.yul\":316:317   */\n      0x00\n        /* \"#utility.yul\":313:314   */\n      dup1\n        /* \"#utility.yul\":306:318   */\n      revert\n        /* \"#utility.yul\":268:320   */\n    tag_184:\n        /* \"#utility.yul\":352:361   */\n      dup3\n        /* \"#utility.yul\":339:362   */\n      calldataload\n        /* \"#utility.yul\":329:362   */\n      swap2\n      pop\n        /* \"#utility.yul\":381:383   */\n      0x20\n        /* \"#utility.yul\":434:436   */\n      dup1\n        /* \"#utility.yul\":423:432   */\n      dup5\n        /* \"#utility.yul\":419:437   */\n      add\n        /* \"#utility.yul\":406:438   */\n      calldataload\n        /* \"#utility.yul\":457:475   */\n      0xffffffffffffffff\n        /* \"#utility.yul\":498:500   */\n      dup1\n        /* \"#utility.yul\":490:496   */\n      dup3\n        /* \"#utility.yul\":487:501   */\n      gt\n        /* \"#utility.yul\":484:518   */\n      iszero\n      tag_185\n      jumpi\n        /* \"#utility.yul\":514:515   */\n      0x00\n        /* \"#utility.yul\":511:512   */\n      dup1\n        /* \"#utility.yul\":504:516   */\n      revert\n        /* \"#utility.yul\":484:518   */\n    tag_185:\n        /* \"#utility.yul\":552:558   */\n      dup2\n        /* \"#utility.yul\":541:550   */\n      dup7\n        /* \"#utility.yul\":537:559   */\n      add\n        /* \"#utility.yul\":527:559   */\n      swap2\n      pop\n        /* \"#utility.yul\":597:604   */\n      dup7\n        /* \"#utility.yul\":590:594   */\n      0x1f\n        /* \"#utility.yul\":586:588   */\n      dup4\n        /* \"#utility.yul\":582:595   */\n      add\n        /* \"#utility.yul\":578:605   */\n      slt\n        /* \"#utility.yul\":568:623   */\n      tag_186\n      jumpi\n        /* \"#utility.yul\":619:620   */\n      0x00\n        /* \"#utility.yul\":616:617   */\n      dup1\n        /* \"#utility.yul\":609:621   */\n      revert\n        /* \"#utility.yul\":568:623   */\n    tag_186:\n        /* \"#utility.yul\":655:657   */\n      dup2\n        /* \"#utility.yul\":642:658   */\n      calldataload\n        /* \"#utility.yul\":677:679   */\n      dup2\n        /* \"#utility.yul\":673:675   */\n      dup2\n        /* \"#utility.yul\":670:680   */\n      gt\n        /* \"#utility.yul\":667:703   */\n      iszero\n      tag_188\n      jumpi\n        /* \"#utility.yul\":683:701   */\n      tag_188\n      tag_121\n      jump\t// in\n    tag_188:\n        /* \"#utility.yul\":729:731   */\n      dup1\n        /* \"#utility.yul\":726:727   */\n      0x05\n        /* \"#utility.yul\":722:732   */\n      shl\n        /* \"#utility.yul\":761:763   */\n      0x40\n        /* \"#utility.yul\":755:764   */\n      mload\n        /* \"#utility.yul\":824:826   */\n      0x1f\n        /* \"#utility.yul\":820:827   */\n      not\n        /* \"#utility.yul\":815:817   */\n      0x3f\n        /* \"#utility.yul\":811:813   */\n      dup4\n        /* \"#utility.yul\":807:818   */\n      add\n        /* \"#utility.yul\":803:828   */\n      and\n        /* \"#utility.yul\":795:801   */\n      dup2\n        /* \"#utility.yul\":791:829   */\n      add\n        /* \"#utility.yul\":879:885   */\n      dup2\n        /* \"#utility.yul\":867:877   */\n      dup2\n        /* \"#utility.yul\":864:886   */\n      lt\n        /* \"#utility.yul\":859:861   */\n      dup6\n        /* \"#utility.yul\":847:857   */\n      dup3\n        /* \"#utility.yul\":844:862   */\n      gt\n        /* \"#utility.yul\":841:887   */\n      or\n        /* \"#utility.yul\":838:910   */\n      iszero\n      tag_190\n      jumpi\n        /* \"#utility.yul\":890:908   */\n      tag_190\n      tag_121\n      jump\t// in\n    tag_190:\n        /* \"#utility.yul\":926:928   */\n      0x40\n        /* \"#utility.yul\":919:941   */\n      mstore\n        /* \"#utility.yul\":976:994   */\n      swap2\n      dup3\n      mstore\n        /* \"#utility.yul\":1010:1025   */\n      dup5\n      dup3\n      add\n      swap3\n      pop\n        /* \"#utility.yul\":1052:1063   */\n      dup4\n      dup2\n      add\n        /* \"#utility.yul\":1048:1068   */\n      dup6\n      add\n      swap2\n        /* \"#utility.yul\":1080:1099   */\n      dup10\n      dup4\n      gt\n        /* \"#utility.yul\":1077:1116   */\n      iszero\n      tag_191\n      jumpi\n        /* \"#utility.yul\":1112:1113   */\n      0x00\n        /* \"#utility.yul\":1109:1110   */\n      dup1\n        /* \"#utility.yul\":1102:1114   */\n      revert\n        /* \"#utility.yul\":1077:1116   */\n    tag_191:\n        /* \"#utility.yul\":1136:1147   */\n      swap4\n      dup6\n      add\n      swap4\n        /* \"#utility.yul\":1156:1298   */\n    tag_192:\n        /* \"#utility.yul\":1172:1178   */\n      dup3\n        /* \"#utility.yul\":1167:1170   */\n      dup6\n        /* \"#utility.yul\":1164:1179   */\n      lt\n        /* \"#utility.yul\":1156:1298   */\n      iszero\n      tag_194\n      jumpi\n        /* \"#utility.yul\":1238:1255   */\n      dup5\n      calldataload\n        /* \"#utility.yul\":1226:1256   */\n      dup5\n      mstore\n        /* \"#utility.yul\":1189:1201   */\n      swap4\n      dup6\n      add\n      swap4\n        /* \"#utility.yul\":1276:1288   */\n      swap3\n      dup6\n      add\n      swap3\n        /* \"#utility.yul\":1156:1298   */\n      jump(tag_192)\n    tag_194:\n        /* \"#utility.yul\":1317:1323   */\n      dup1\n        /* \"#utility.yul\":1307:1323   */\n      swap7\n      pop\n      pop\n      pop\n      pop\n      pop\n      pop\n      pop\n        /* \"#utility.yul\":146:1329   */\n      swap3\n      pop\n      swap3\n      swap1\n      pop\n      jump\t// out\n        /* \"#utility.yul\":1334:1514   */\n    tag_24:\n        /* \"#utility.yul\":1393:1399   */\n      0x00\n        /* \"#utility.yul\":1446:1448   */\n      0x20\n        /* \"#utility.yul\":1434:1443   */\n      dup3\n        /* \"#utility.yul\":1425:1432   */\n      dup5\n        /* \"#utility.yul\":1421:1444   */\n      sub\n        /* \"#utility.yul\":1417:1449   */\n      slt\n        /* \"#utility.yul\":1414:1466   */\n      iszero\n      tag_196\n      jumpi\n        /* \"#utility.yul\":1462:1463   */\n      0x00\n        /* \"#utility.yul\":1459:1460   */\n      dup1\n        /* \"#utility.yul\":1452:1464   */\n      revert\n        /* \"#utility.yul\":1414:1466   */\n    tag_196:\n      pop\n        /* \"#utility.yul\":1485:1508   */\n      calldataload\n      swap2\n        /* \"#utility.yul\":1334:1514   */\n      swap1\n      pop\n      jump\t// out\n        /* \"#utility.yul\":2578:3013   */\n    tag_180:\n        /* \"#utility.yul\":2631:2634   */\n      0x00\n        /* \"#utility.yul\":2669:2674   */\n      dup2\n        /* \"#utility.yul\":2663:2675   */\n      mload\n        /* \"#utility.yul\":2696:2702   */\n      dup1\n        /* \"#utility.yul\":2691:2694   */\n      dup5\n        /* \"#utility.yul\":2684:2703   */\n      mstore\n        /* \"#utility.yul\":2722:2726   */\n      0x20\n        /* \"#utility.yul\":2751:2753   */\n      dup1\n        /* \"#utility.yul\":2746:2749   */\n      dup6\n        /* \"#utility.yul\":2742:2754   */\n      add\n        /* \"#utility.yul\":2735:2754   */\n      swap5\n      pop\n        /* \"#utility.yul\":2788:2790   */\n      dup1\n        /* \"#utility.yul\":2781:2786   */\n      dup5\n        /* \"#utility.yul\":2777:2791   */\n      add\n        /* \"#utility.yul\":2809:2810   */\n      0x00\n        /* \"#utility.yul\":2819:2988   */\n    tag_202:\n        /* \"#utility.yul\":2833:2839   */\n      dup4\n        /* \"#utility.yul\":2830:2831   */\n      dup2\n        /* \"#utility.yul\":2827:2840   */\n      lt\n        /* \"#utility.yul\":2819:2988   */\n      iszero\n      tag_204\n      jumpi\n        /* \"#utility.yul\":2894:2907   */\n      dup2\n      mload\n        /* \"#utility.yul\":2882:2908   */\n      dup8\n      mstore\n        /* \"#utility.yul\":2928:2940   */\n      swap6\n      dup3\n      add\n      swap6\n        /* \"#utility.yul\":2963:2978   */\n      swap1\n      dup3\n      add\n      swap1\n        /* \"#utility.yul\":2855:2856   */\n      0x01\n        /* \"#utility.yul\":2848:2857   */\n      add\n        /* \"#utility.yul\":2819:2988   */\n      jump(tag_202)\n    tag_204:\n      pop\n        /* \"#utility.yul\":3004:3007   */\n      swap5\n      swap6\n        /* \"#utility.yul\":2578:3013   */\n      swap5\n      pop\n      pop\n      pop\n      pop\n      pop\n      jump\t// out\n        /* \"#utility.yul\":3018:3431   */\n    tag_48:\n        /* \"#utility.yul\":3247:3253   */\n      dup4\n        /* \"#utility.yul\":3236:3245   */\n      dup2\n        /* \"#utility.yul\":3229:3254   */\n      mstore\n        /* \"#utility.yul\":3304:3310   */\n      dup3\n        /* \"#utility.yul\":3297:3311   */\n      iszero\n        /* \"#utility.yul\":3290:3312   */\n      iszero\n        /* \"#utility.yul\":3285:3287   */\n      0x20\n        /* \"#utility.yul\":3274:3283   */\n      dup3\n        /* \"#utility.yul\":3270:3288   */\n      add\n        /* \"#utility.yul\":3263:3313   */\n      mstore\n        /* \"#utility.yul\":3349:3351   */\n      0x60\n        /* \"#utility.yul\":3344:3346   */\n      0x40\n        /* \"#utility.yul\":3333:3342   */\n      dup3\n        /* \"#utility.yul\":3329:3347   */\n      add\n        /* \"#utility.yul\":3322:3352   */\n      mstore\n        /* \"#utility.yul\":3210:3214   */\n      0x00\n        /* \"#utility.yul\":3369:3425   */\n      tag_206\n        /* \"#utility.yul\":3421:3423   */\n      0x60\n        /* \"#utility.yul\":3410:3419   */\n      dup4\n        /* \"#utility.yul\":3406:3424   */\n      add\n        /* \"#utility.yul\":3398:3404   */\n      dup5\n        /* \"#utility.yul\":3369:3425   */\n      tag_180\n      jump\t// in\n    tag_206:\n        /* \"#utility.yul\":3361:3425   */\n      swap6\n        /* \"#utility.yul\":3018:3431   */\n      swap5\n      pop\n      pop\n      pop\n      pop\n      pop\n      jump\t// out\n        /* \"#utility.yul\":3436:3684   */\n    tag_55:\n        /* \"#utility.yul\":3504:3510   */\n      0x00\n        /* \"#utility.yul\":3512:3518   */\n      dup1\n        /* \"#utility.yul\":3565:3567   */\n      0x40\n        /* \"#utility.yul\":3553:3562   */\n      dup4\n        /* \"#utility.yul\":3544:3551   */\n      dup6\n        /* \"#utility.yul\":3540:3563   */\n      sub\n        /* \"#utility.yul\":3536:3568   */\n      slt\n        /* \"#utility.yul\":3533:3585   */\n      iszero\n      tag_208\n      jumpi\n        /* \"#utility.yul\":3581:3582   */\n      0x00\n        /* \"#utility.yul\":3578:3579   */\n      dup1\n        /* \"#utility.yul\":3571:3583   */\n      revert\n        /* \"#utility.yul\":3533:3585   */\n    tag_208:\n      pop\n      pop\n        /* \"#utility.yul\":3604:3627   */\n      dup1\n      calldataload\n      swap3\n        /* \"#utility.yul\":3674:3676   */\n      0x20\n        /* \"#utility.yul\":3659:3677   */\n      swap1\n      swap2\n      add\n        /* \"#utility.yul\":3646:3678   */\n      calldataload\n      swap2\n      pop\n        /* \"#utility.yul\":3436:3684   */\n      jump\t// out\n        /* \"#utility.yul\":3689:3975   */\n    tag_60:\n        /* \"#utility.yul\":3748:3754   */\n      0x00\n        /* \"#utility.yul\":3801:3803   */\n      0x20\n        /* \"#utility.yul\":3789:3798   */\n      dup3\n        /* \"#utility.yul\":3780:3787   */\n      dup5\n        /* \"#utility.yul\":3776:3799   */\n      sub\n        /* \"#utility.yul\":3772:3804   */\n      slt\n        /* \"#utility.yul\":3769:3821   */\n      iszero\n      tag_210\n      jumpi\n        /* \"#utility.yul\":3817:3818   */\n      0x00\n        /* \"#utility.yul\":3814:3815   */\n      dup1\n        /* \"#utility.yul\":3807:3819   */\n      revert\n        /* \"#utility.yul\":3769:3821   */\n    tag_210:\n        /* \"#utility.yul\":3843:3866   */\n      dup2\n      calldataload\n      sub(shl(0xa0, 0x01), 0x01)\n        /* \"#utility.yul\":3895:3926   */\n      dup2\n      and\n        /* \"#utility.yul\":3885:3927   */\n      dup2\n      eq\n        /* \"#utility.yul\":3875:3945   */\n      tag_211\n      jumpi\n        /* \"#utility.yul\":3941:3942   */\n      0x00\n        /* \"#utility.yul\":3938:3939   */\n      dup1\n        /* \"#utility.yul\":3931:3943   */\n      revert\n        /* \"#utility.yul\":3875:3945   */\n    tag_211:\n        /* \"#utility.yul\":3964:3969   */\n      swap4\n        /* \"#utility.yul\":3689:3975   */\n      swap3\n      pop\n      pop\n      pop\n      jump\t// out\n        /* \"#utility.yul\":4691:4875   */\n    tag_86:\n        /* \"#utility.yul\":4761:4767   */\n      0x00\n        /* \"#utility.yul\":4814:4816   */\n      0x20\n        /* \"#utility.yul\":4802:4811   */\n      dup3\n        /* \"#utility.yul\":4793:4800   */\n      dup5\n        /* \"#utility.yul\":4789:4812   */\n      sub\n        /* \"#utility.yul\":4785:4817   */\n      slt\n        /* \"#utility.yul\":4782:4834   */\n      iszero\n      tag_215\n      jumpi\n        /* \"#utility.yul\":4830:4831   */\n      0x00\n        /* \"#utility.yul\":4827:4828   */\n      dup1\n        /* \"#utility.yul\":4820:4832   */\n      revert\n        /* \"#utility.yul\":4782:4834   */\n    tag_215:\n      pop\n        /* \"#utility.yul\":4853:4869   */\n      mload\n      swap2\n        /* \"#utility.yul\":4691:4875   */\n      swap1\n      pop\n      jump\t// out\n        /* \"#utility.yul\":5159:5436   */\n    tag_92:\n        /* \"#utility.yul\":5226:5232   */\n      0x00\n        /* \"#utility.yul\":5279:5281   */\n      0x20\n        /* \"#utility.yul\":5267:5276   */\n      dup3\n        /* \"#utility.yul\":5258:5265   */\n      dup5\n        /* \"#utility.yul\":5254:5277   */\n      sub\n        /* \"#utility.yul\":5250:5282   */\n      slt\n        /* \"#utility.yul\":5247:5299   */\n      iszero\n      tag_218\n      jumpi\n        /* \"#utility.yul\":5295:5296   */\n      0x00\n        /* \"#utility.yul\":5292:5293   */\n      dup1\n        /* \"#utility.yul\":5285:5297   */\n      revert\n        /* \"#utility.yul\":5247:5299   */\n    tag_218:\n        /* \"#utility.yul\":5327:5336   */\n      dup2\n        /* \"#utility.yul\":5321:5337   */\n      mload\n        /* \"#utility.yul\":5380:5385   */\n      dup1\n        /* \"#utility.yul\":5373:5386   */\n      iszero\n        /* \"#utility.yul\":5366:5387   */\n      iszero\n        /* \"#utility.yul\":5359:5364   */\n      dup2\n        /* \"#utility.yul\":5356:5388   */\n      eq\n        /* \"#utility.yul\":5346:5406   */\n      tag_211\n      jumpi\n        /* \"#utility.yul\":5402:5403   */\n      0x00\n        /* \"#utility.yul\":5399:5400   */\n      dup1\n        /* \"#utility.yul\":5392:5404   */\n      revert\n        /* \"#utility.yul\":7676:7803   */\n    tag_143:\n        /* \"#utility.yul\":7737:7747   */\n      0x4e487b71\n        /* \"#utility.yul\":7732:7735   */\n      0xe0\n        /* \"#utility.yul\":7728:7748   */\n      shl\n        /* \"#utility.yul\":7725:7726   */\n      0x00\n        /* \"#utility.yul\":7718:7749   */\n      mstore\n        /* \"#utility.yul\":7768:7772   */\n      0x32\n        /* \"#utility.yul\":7765:7766   */\n      0x04\n        /* \"#utility.yul\":7758:7773   */\n      mstore\n        /* \"#utility.yul\":7792:7796   */\n      0x24\n        /* \"#utility.yul\":7789:7790   */\n      0x00\n        /* \"#utility.yul\":7782:7797   */\n      revert\n        /* \"#utility.yul\":7808:8017   */\n    tag_145:\n        /* \"#utility.yul\":7840:7841   */\n      0x00\n        /* \"#utility.yul\":7866:7867   */\n      dup3\n        /* \"#utility.yul\":7856:7988   */\n      tag_229\n      jumpi\n        /* \"#utility.yul\":7910:7920   */\n      0x4e487b71\n        /* \"#utility.yul\":7905:7908   */\n      0xe0\n        /* \"#utility.yul\":7901:7921   */\n      shl\n        /* \"#utility.yul\":7898:7899   */\n      0x00\n        /* \"#utility.yul\":7891:7922   */\n      mstore\n        /* \"#utility.yul\":7945:7949   */\n      0x12\n        /* \"#utility.yul\":7942:7943   */\n      0x04\n        /* \"#utility.yul\":7935:7950   */\n      mstore\n        /* \"#utility.yul\":7973:7977   */\n      0x24\n        /* \"#utility.yul\":7970:7971   */\n      0x00\n        /* \"#utility.yul\":7963:7978   */\n      revert\n        /* \"#utility.yul\":7856:7988   */\n    tag_229:\n      pop\n        /* \"#utility.yul\":8002:8011   */\n      mod\n      swap1\n        /* \"#utility.yul\":7808:8017   */\n      jump\t// out\n        /* \"#utility.yul\":8022:8425   */\n    tag_147:\n        /* \"#utility.yul\":8257:8263   */\n      dup4\n        /* \"#utility.yul\":8246:8255   */\n      dup2\n        /* \"#utility.yul\":8239:8264   */\n      mstore\n        /* \"#utility.yul\":8300:8302   */\n      0x60\n        /* \"#utility.yul\":8295:8297   */\n      0x20\n        /* \"#utility.yul\":8284:8293   */\n      dup3\n        /* \"#utility.yul\":8280:8298   */\n      add\n        /* \"#utility.yul\":8273:8303   */\n      mstore\n        /* \"#utility.yul\":8220:8224   */\n      0x00\n        /* \"#utility.yul\":8320:8376   */\n      tag_231\n        /* \"#utility.yul\":8372:8374   */\n      0x60\n        /* \"#utility.yul\":8361:8370   */\n      dup4\n        /* \"#utility.yul\":8357:8375   */\n      add\n        /* \"#utility.yul\":8349:8355   */\n      dup6\n        /* \"#utility.yul\":8320:8376   */\n      tag_180\n      jump\t// in\n    tag_231:\n        /* \"#utility.yul\":8312:8376   */\n      swap1\n      pop\n        /* \"#utility.yul\":8412:8418   */\n      dup3\n        /* \"#utility.yul\":8407:8409   */\n      0x40\n        /* \"#utility.yul\":8396:8405   */\n      dup4\n        /* \"#utility.yul\":8392:8410   */\n      add\n        /* \"#utility.yul\":8385:8419   */\n      mstore\n        /* \"#utility.yul\":8022:8425   */\n      swap5\n      swap4\n      pop\n      pop\n      pop\n      pop\n      jump\t// out\n        /* \"#utility.yul\":9555:10272   */\n    tag_162:\n        /* \"#utility.yul\":9787:9788   */\n      0x01\n        /* \"#utility.yul\":9783:9784   */\n      dup1\n        /* \"#utility.yul\":9778:9781   */\n      0xa0\n        /* \"#utility.yul\":9774:9785   */\n      shl\n        /* \"#utility.yul\":9770:9789   */\n      sub\n        /* \"#utility.yul\":9762:9768   */\n      dup5\n        /* \"#utility.yul\":9758:9790   */\n      and\n        /* \"#utility.yul\":9747:9756   */\n      dup2\n        /* \"#utility.yul\":9740:9791   */\n      mstore\n        /* \"#utility.yul\":9721:9725   */\n      0x00\n        /* \"#utility.yul\":9810:9812   */\n      0x20\n        /* \"#utility.yul\":9848:9854   */\n      dup5\n        /* \"#utility.yul\":9843:9845   */\n      dup2\n        /* \"#utility.yul\":9832:9841   */\n      dup5\n        /* \"#utility.yul\":9828:9846   */\n      add\n        /* \"#utility.yul\":9821:9855   */\n      mstore\n        /* \"#utility.yul\":9891:9893   */\n      0x60\n        /* \"#utility.yul\":9886:9888   */\n      0x40\n        /* \"#utility.yul\":9875:9884   */\n      dup5\n        /* \"#utility.yul\":9871:9889   */\n      add\n        /* \"#utility.yul\":9864:9894   */\n      mstore\n        /* \"#utility.yul\":9923:9929   */\n      dup4\n        /* \"#utility.yul\":9917:9930   */\n      mload\n        /* \"#utility.yul\":9966:9972   */\n      dup1\n        /* \"#utility.yul\":9961:9963   */\n      0x60\n        /* \"#utility.yul\":9950:9959   */\n      dup6\n        /* \"#utility.yul\":9946:9964   */\n      add\n        /* \"#utility.yul\":9939:9973   */\n      mstore\n        /* \"#utility.yul\":9991:9992   */\n      0x00\n        /* \"#utility.yul\":10001:10142   */\n    tag_236:\n        /* \"#utility.yul\":10015:10021   */\n      dup2\n        /* \"#utility.yul\":10012:10013   */\n      dup2\n        /* \"#utility.yul\":10009:10022   */\n      lt\n        /* \"#utility.yul\":10001:10142   */\n      iszero\n      tag_238\n      jumpi\n        /* \"#utility.yul\":10111:10125   */\n      dup6\n      dup2\n      add\n        /* \"#utility.yul\":10107:10130   */\n      dup4\n      add\n        /* \"#utility.yul\":10101:10131   */\n      mload\n        /* \"#utility.yul\":10076:10093   */\n      dup6\n      dup3\n      add\n        /* \"#utility.yul\":10095:10098   */\n      0x80\n        /* \"#utility.yul\":10072:10099   */\n      add\n        /* \"#utility.yul\":10065:10132   */\n      mstore\n        /* \"#utility.yul\":10030:10040   */\n      dup3\n      add\n        /* \"#utility.yul\":10001:10142   */\n      jump(tag_236)\n    tag_238:\n        /* \"#utility.yul\":10005:10008   */\n      pop\n        /* \"#utility.yul\":10192:10193   */\n      0x00\n        /* \"#utility.yul\":10186:10189   */\n      0x80\n        /* \"#utility.yul\":10177:10183   */\n      dup3\n        /* \"#utility.yul\":10166:10175   */\n      dup7\n        /* \"#utility.yul\":10162:10184   */\n      add\n        /* \"#utility.yul\":10158:10190   */\n      add\n        /* \"#utility.yul\":10151:10194   */\n      mstore\n        /* \"#utility.yul\":10262:10265   */\n      0x80\n        /* \"#utility.yul\":10255:10257   */\n      0x1f\n        /* \"#utility.yul\":10251:10258   */\n      not\n        /* \"#utility.yul\":10246:10248   */\n      0x1f\n        /* \"#utility.yul\":10238:10244   */\n      dup4\n        /* \"#utility.yul\":10234:10249   */\n      add\n        /* \"#utility.yul\":10230:10259   */\n      and\n        /* \"#utility.yul\":10219:10228   */\n      dup6\n        /* \"#utility.yul\":10215:10260   */\n      add\n        /* \"#utility.yul\":10211:10266   */\n      add\n        /* \"#utility.yul\":10203:10266   */\n      swap3\n      pop\n      pop\n      pop\n        /* \"#utility.yul\":9555:10272   */\n      swap5\n      swap4\n      pop\n      pop\n      pop\n      pop\n      jump\t// out\n\n    auxdata: 0xa2646970667358221220459579c34afc8de28af627eb8b5baf5a4263afce0284f1a91a90910f64a0246164736f6c63430008120033\n}\n",
				"bytecode": {
					"linkReferences": {},
					"object": "60c0604052600680547d514910771af9ca656af840dff83e8264ecf986ca00000001000600030d406001600160f01b0319909116179055600780546001600160a01b031916735a861794b927983406fce1d062e00b9368d97df617905534801561006857600080fd5b506006546007546001600160a01b036a010000000000000000000090920482166080521660a05233806000816100e55760405162461bcd60e51b815260206004820152601860248201527f43616e6e6f7420736574206f776e657220746f207a65726f000000000000000060448201526064015b60405180910390fd5b600080546001600160a01b0319166001600160a01b0384811691909117909155811615610115576101158161011d565b5050506101c6565b336001600160a01b038216036101755760405162461bcd60e51b815260206004820152601760248201527f43616e6e6f74207472616e7366657220746f2073656c6600000000000000000060448201526064016100dc565b600180546001600160a01b0319166001600160a01b0383811691821790925560008054604051929316917fed8889f560326eb138920d842192f0eb3dd22b4f139c87a2c57538e05bae12789190a350565b60805160a0516111146102006000396000818161022d0152818161070b01528181610b930152610c9c01526000610b6901526111146000f3fe608060405234801561001057600080fd5b50600436106100b45760003560e01c8063d41f27d911610071578063d41f27d91461015e578063d8a4676f146101be578063d94afeb6146101e0578063deb93c7c146101f3578063f2fde38b14610206578063fc2a88c31461021957600080fd5b80631fe543e3146100b957806379ba5097146100ce5780638796ba8c146100d65780638da5cb5b146100fc5780638dc654a214610117578063a168fa891461011f575b600080fd5b6100cc6100c7366004610e43565b610222565b005b6100cc6102ad565b6100e96100e4366004610f0d565b610357565b6040519081526020015b60405180910390f35b6000546040516001600160a01b0390911681526020016100f3565b6100cc610378565b61014961012d366004610f0d565b6002602052600090815260409020805460019091015460ff1682565b604080519283529015156020830152016100f3565b61019861016c366004610f0d565b6003602081905260009182526040909120805460018201546002830154929093015490929160ff169084565b6040805194855260208501939093529015159183019190915260608201526080016100f3565b6101d16101cc366004610f0d565b6104b1565b6040516100f393929190610f61565b6101986101ee366004610f0d565b61059d565b6100e9610201366004610f8b565b610644565b6100cc610214366004610fad565b610903565b6100e960055481565b336001600160a01b037f0000000000000000000000000000000000000000000000000000000000000000161461029f5760405162461bcd60e51b815260206004820152601f60248201527f6f6e6c792056524620563220777261707065722063616e2066756c66696c6c0060448201526064015b60405180910390fd5b6102a98282610914565b5050565b6001546001600160a01b031633146103005760405162461bcd60e51b815260206004820152601660248201527526bab9ba10313290383937b837b9b2b21037bbb732b960511b6044820152606401610296565b60008054336001600160a01b0319808316821784556001805490911690556040516001600160a01b0390921692909183917f8be0079c531659141344cd1fd0a4f28419497f9722a3daafe3b4186f6b6457e091a350565b6004818154811061036757600080fd5b600091825260209091200154905081565b610380610aee565b6006546040516370a0823160e01b8152306004820152600160501b9091046001600160a01b031690819063a9059cbb90339083906370a0823190602401602060405180830381865afa1580156103da573d6000803e3d6000fd5b505050506040513d601f19601f820116820180604052508101906103fe9190610fdd565b6040516001600160e01b031960e085901b1681526001600160a01b03909216600483015260248201526044016020604051808303816000875af1158015610449573d6000803e3d6000fd5b505050506040513d601f19601f8201168201806040525081019061046d9190610ff6565b6104ae5760405162461bcd60e51b81526020600482015260126024820152712ab730b13632903a37903a3930b739b332b960711b6044820152606401610296565b50565b60008181526002602052604081205481906060906105055760405162461bcd60e51b81526020600482015260116024820152701c995c5d595cdd081b9bdd08199bdd5b99607a1b6044820152606401610296565b6000848152600260208181526040808420815160608101835281548152600182015460ff161515818501529381018054835181860281018601855281815292949386019383018282801561057857602002820191906000526020600020905b815481526020019060010190808311610564575b5050509190925250508151602083015160409093015190989297509550909350505050565b6000818152600360205260408120600101548190819081906105f25760405162461bcd60e51b815260206004820152600e60248201526d1c1a58dac81b9bdd08199bdd5b9960921b6044820152606401610296565b50505060009182525060036020818152604092839020835160808101855281548082526001830154938201849052600283015460ff161515958201869052919093015460609093018390529390929190565b600061064e610aee565b600082116106b05760405162461bcd60e51b815260206004820152602960248201527f4d7573742068617665206174206c65617374206f6e65206974656d20746f207060448201526834b1b590333937b69760b91b6064820152608401610296565b6006546106de9063ffffffff8082169161ffff64010000000082041691660100000000000090910416610b43565b6040805160608101918290526006546310c1b4d560e21b90925263ffffffff9091166064820152909150807f00000000000000000000000000000000000000000000000000000000000000006001600160a01b0316634306d35460848301602060405180830381865afa158015610759573d6000803e3d6000fd5b505050506040513d601f19601f8201168201806040525081019061077d9190610fdd565b81526000602080830182905260408051838152808301825293810193909352848252600280825291839020845181558482015160018201805460ff19169115159190911790559284015180516107da938501929190910190610dcd565b50506040805160808101825285815260208082018681526000838501818152606085018281528883526003808652878420965187559351600180880191909155915160028701805460ff19169115159190911790555194909201939093556004805491820181559092527f8a35acfbc15ff81a39ae7d344fd709f28e8600b4aa8c65c6b64bfe7fe36bd19b90910184905560058490556006548251858152660100000000000090910463ffffffff16918101919091527fcc58b13ad3eab50626c6a6300b1d139cd6ebb1688a7cced9461c2f7e762665ee92500160405180910390a160408051848152602081018490529081018290527ffd817988341ec7059beeb40c29364215c554a68b8d479fc8908287c5b4d63a279060600160405180910390a192915050565b61090b610aee565b6104ae81610d24565b6000828152600260205260409020546109635760405162461bcd60e51b81526020600482015260116024820152701c995c5d595cdd081b9bdd08199bdd5b99607a1b6044820152606401610296565b6000828152600360205260409020600101546109b25760405162461bcd60e51b815260206004820152600e60248201526d1c1a58dac81b9bdd08199bdd5b9960921b6044820152606401610296565b60008281526002602081815260409092206001818101805460ff1916909117905583516109e793919092019190840190610dcd565b50600082815260036020526040812060010154825183908390610a0c57610a0c611018565b6020026020010151610a1e919061102e565b60008481526003602081815260408084206002808201805460ff191660011790559301859055919052908190205490519192507f147eb1ff0c82f87f2b03e2c43f5a36488ff63ec6b730195fde4605f612f8db5191610a81918691869190611050565b60405180910390a16000838152600360209081526040918290208054600190910154835191825291810191909152908101829052606081018490527f568b75c41ae0ab8d80bc8223356841d584e86546b66cb1ee87af822c8251d61b9060800160405180910390a1505050565b6000546001600160a01b03163314610b415760405162461bcd60e51b815260206004820152601660248201527527b7363c9031b0b63630b1363290313c9037bbb732b960511b6044820152606401610296565b565b6040516310c1b4d560e21b815263ffffffff841660048201526000906001600160a01b037f0000000000000000000000000000000000000000000000000000000000000000811691634000aea0917f00000000000000000000000000000000000000000000000000000000000000009190821690634306d35490602401602060405180830381865afa158015610bdd573d6000803e3d6000fd5b505050506040513d601f19601f82011682018060405250810190610c019190610fdd565b6040805163ffffffff808b16602083015261ffff8a169282019290925290871660608201526080016040516020818303038152906040526040518463ffffffff1660e01b8152600401610c5693929190611079565b6020604051808303816000875af1158015610c75573d6000803e3d6000fd5b505050506040513d601f19601f82011682018060405250810190610c999190610ff6565b507f00000000000000000000000000000000000000000000000000000000000000006001600160a01b031663fc2a88c36040518163ffffffff1660e01b8152600401602060405180830381865afa158015610cf8573d6000803e3d6000fd5b505050506040513d601f19601f82011682018060405250810190610d1c9190610fdd565b949350505050565b336001600160a01b03821603610d7c5760405162461bcd60e51b815260206004820152601760248201527f43616e6e6f74207472616e7366657220746f2073656c660000000000000000006044820152606401610296565b600180546001600160a01b0319166001600160a01b0383811691821790925560008054604051929316917fed8889f560326eb138920d842192f0eb3dd22b4f139c87a2c57538e05bae12789190a350565b828054828255906000526020600020908101928215610e08579160200282015b82811115610e08578251825591602001919060010190610ded565b50610e14929150610e18565b5090565b5b80821115610e145760008155600101610e19565b634e487b7160e01b600052604160045260246000fd5b60008060408385031215610e5657600080fd5b8235915060208084013567ffffffffffffffff80821115610e7657600080fd5b818601915086601f830112610e8a57600080fd5b813581811115610e9c57610e9c610e2d565b8060051b604051601f19603f83011681018181108582111715610ec157610ec1610e2d565b604052918252848201925083810185019189831115610edf57600080fd5b938501935b82851015610efd57843584529385019392850192610ee4565b8096505050505050509250929050565b600060208284031215610f1f57600080fd5b5035919050565b600081518084526020808501945080840160005b83811015610f5657815187529582019590820190600101610f3a565b509495945050505050565b8381528215156020820152606060408201526000610f826060830184610f26565b95945050505050565b60008060408385031215610f9e57600080fd5b50508035926020909101359150565b600060208284031215610fbf57600080fd5b81356001600160a01b0381168114610fd657600080fd5b9392505050565b600060208284031215610fef57600080fd5b5051919050565b60006020828403121561100857600080fd5b81518015158114610fd657600080fd5b634e487b7160e01b600052603260045260246000fd5b60008261104b57634e487b7160e01b600052601260045260246000fd5b500690565b8381526060602082015260006110696060830185610f26565b9050826040830152949350505050565b60018060a01b038416815260006020848184015260606040840152835180606085015260005b818110156110bb5785810183015185820160800152820161109f565b506000608082860101526080601f19601f8301168501019250505094935050505056fea2646970667358221220459579c34afc8de28af627eb8b5baf5a4263afce0284f1a91a90910f64a0246164736f6c63430008120033",
					"opcodes": "PUSH1 0xC0 PUSH1 0x40 MSTORE PUSH1 0x6 DUP1 SLOAD PUSH30 0x514910771AF9CA656AF840DFF83E8264ECF986CA00000001000600030D40 PUSH1 0x1 PUSH1 0x1 PUSH1 0xF0 SHL SUB NOT SWAP1 SWAP2 AND OR SWAP1 SSTORE PUSH1 0x7 DUP1 SLOAD PUSH1 0x1 PUSH1 0x1 PUSH1 0xA0 SHL SUB NOT AND PUSH20 0x5A861794B927983406FCE1D062E00B9368D97DF6 OR SWAP1 SSTORE CALLVALUE DUP1 ISZERO PUSH2 0x68 JUMPI PUSH1 0x0 DUP1 REVERT JUMPDEST POP PUSH1 0x6 SLOAD PUSH1 0x7 SLOAD PUSH1 0x1 PUSH1 0x1 PUSH1 0xA0 SHL SUB PUSH11 0x100000000000000000000 SWAP1 SWAP3 DIV DUP3 AND PUSH1 0x80 MSTORE AND PUSH1 0xA0 MSTORE CALLER DUP1 PUSH1 0x0 DUP2 PUSH2 0xE5 JUMPI PUSH1 0x40 MLOAD PUSH3 0x461BCD PUSH1 0xE5 SHL DUP2 MSTORE PUSH1 0x20 PUSH1 0x4 DUP3 ADD MSTORE PUSH1 0x18 PUSH1 0x24 DUP3 ADD MSTORE PUSH32 0x43616E6E6F7420736574206F776E657220746F207A65726F0000000000000000 PUSH1 0x44 DUP3 ADD MSTORE PUSH1 0x64 ADD JUMPDEST PUSH1 0x40 MLOAD DUP1 SWAP2 SUB SWAP1 REVERT JUMPDEST PUSH1 0x0 DUP1 SLOAD PUSH1 0x1 PUSH1 0x1 PUSH1 0xA0 SHL SUB NOT AND PUSH1 0x1 PUSH1 0x1 PUSH1 0xA0 SHL SUB DUP5 DUP2 AND SWAP2 SWAP1 SWAP2 OR SWAP1 SWAP2 SSTORE DUP2 AND ISZERO PUSH2 0x115 JUMPI PUSH2 0x115 DUP2 PUSH2 0x11D JUMP JUMPDEST POP POP POP PUSH2 0x1C6 JUMP JUMPDEST CALLER PUSH1 0x1 PUSH1 0x1 PUSH1 0xA0 SHL SUB DUP3 AND SUB PUSH2 0x175 JUMPI PUSH1 0x40 MLOAD PUSH3 0x461BCD PUSH1 0xE5 SHL DUP2 MSTORE PUSH1 0x20 PUSH1 0x4 DUP3 ADD MSTORE PUSH1 0x17 PUSH1 0x24 DUP3 ADD MSTORE PUSH32 0x43616E6E6F74207472616E7366657220746F2073656C66000000000000000000 PUSH1 0x44 DUP3 ADD MSTORE PUSH1 0x64 ADD PUSH2 0xDC JUMP JUMPDEST PUSH1 0x1 DUP1 SLOAD PUSH1 0x1 PUSH1 0x1 PUSH1 0xA0 SHL SUB NOT AND PUSH1 0x1 PUSH1 0x1 PUSH1 0xA0 SHL SUB DUP4 DUP2 AND SWAP2 DUP3 OR SWAP1 SWAP3 SSTORE PUSH1 0x0 DUP1 SLOAD PUSH1 0x40 MLOAD SWAP3 SWAP4 AND SWAP2 PUSH32 0xED8889F560326EB138920D842192F0EB3DD22B4F139C87A2C57538E05BAE1278 SWAP2 SWAP1 LOG3 POP JUMP JUMPDEST PUSH1 0x80 MLOAD PUSH1 0xA0 MLOAD PUSH2 0x1114 PUSH2 0x200 PUSH1 0x0 CODECOPY PUSH1 0x0 DUP2 DUP2 PUSH2 0x22D ADD MSTORE DUP2 DUP2 PUSH2 0x70B ADD MSTORE DUP2 DUP2 PUSH2 0xB93 ADD MSTORE PUSH2 0xC9C ADD MSTORE PUSH1 0x0 PUSH2 0xB69 ADD MSTORE PUSH2 0x1114 PUSH1 0x0 RETURN INVALID PUSH1 0x80 PUSH1 0x40 MSTORE CALLVALUE DUP1 ISZERO PUSH2 0x10 JUMPI PUSH1 0x0 DUP1 REVERT JUMPDEST POP PUSH1 0x4 CALLDATASIZE LT PUSH2 0xB4 JUMPI PUSH1 0x0 CALLDATALOAD PUSH1 0xE0 SHR DUP1 PUSH4 0xD41F27D9 GT PUSH2 0x71 JUMPI DUP1 PUSH4 0xD41F27D9 EQ PUSH2 0x15E JUMPI DUP1 PUSH4 0xD8A4676F EQ PUSH2 0x1BE JUMPI DUP1 PUSH4 0xD94AFEB6 EQ PUSH2 0x1E0 JUMPI DUP1 PUSH4 0xDEB93C7C EQ PUSH2 0x1F3 JUMPI DUP1 PUSH4 0xF2FDE38B EQ PUSH2 0x206 JUMPI DUP1 PUSH4 0xFC2A88C3 EQ PUSH2 0x219 JUMPI PUSH1 0x0 DUP1 REVERT JUMPDEST DUP1 PUSH4 0x1FE543E3 EQ PUSH2 0xB9 JUMPI DUP1 PUSH4 0x79BA5097 EQ PUSH2 0xCE JUMPI DUP1 PUSH4 0x8796BA8C EQ PUSH2 0xD6 JUMPI DUP1 PUSH4 0x8DA5CB5B EQ PUSH2 0xFC JUMPI DUP1 PUSH4 0x8DC654A2 EQ PUSH2 0x117 JUMPI DUP1 PUSH4 0xA168FA89 EQ PUSH2 0x11F JUMPI JUMPDEST PUSH1 0x0 DUP1 REVERT JUMPDEST PUSH2 0xCC PUSH2 0xC7 CALLDATASIZE PUSH1 0x4 PUSH2 0xE43 JUMP JUMPDEST PUSH2 0x222 JUMP JUMPDEST STOP JUMPDEST PUSH2 0xCC PUSH2 0x2AD JUMP JUMPDEST PUSH2 0xE9 PUSH2 0xE4 CALLDATASIZE PUSH1 0x4 PUSH2 0xF0D JUMP JUMPDEST PUSH2 0x357 JUMP JUMPDEST PUSH1 0x40 MLOAD SWAP1 DUP2 MSTORE PUSH1 0x20 ADD JUMPDEST PUSH1 0x40 MLOAD DUP1 SWAP2 SUB SWAP1 RETURN JUMPDEST PUSH1 0x0 SLOAD PUSH1 0x40 MLOAD PUSH1 0x1 PUSH1 0x1 PUSH1 0xA0 SHL SUB SWAP1 SWAP2 AND DUP2 MSTORE PUSH1 0x20 ADD PUSH2 0xF3 JUMP JUMPDEST PUSH2 0xCC PUSH2 0x378 JUMP JUMPDEST PUSH2 0x149 PUSH2 0x12D CALLDATASIZE PUSH1 0x4 PUSH2 0xF0D JUMP JUMPDEST PUSH1 0x2 PUSH1 0x20 MSTORE PUSH1 0x0 SWAP1 DUP2 MSTORE PUSH1 0x40 SWAP1 KECCAK256 DUP1 SLOAD PUSH1 0x1 SWAP1 SWAP2 ADD SLOAD PUSH1 0xFF AND DUP3 JUMP JUMPDEST PUSH1 0x40 DUP1 MLOAD SWAP3 DUP4 MSTORE SWAP1 ISZERO ISZERO PUSH1 0x20 DUP4 ADD MSTORE ADD PUSH2 0xF3 JUMP JUMPDEST PUSH2 0x198 PUSH2 0x16C CALLDATASIZE PUSH1 0x4 PUSH2 0xF0D JUMP JUMPDEST PUSH1 0x3 PUSH1 0x20 DUP2 SWAP1 MSTORE PUSH1 0x0 SWAP2 DUP3 MSTORE PUSH1 0x40 SWAP1 SWAP2 KECCAK256 DUP1 SLOAD PUSH1 0x1 DUP3 ADD SLOAD PUSH1 0x2 DUP4 ADD SLOAD SWAP3 SWAP1 SWAP4 ADD SLOAD SWAP1 SWAP3 SWAP2 PUSH1 0xFF AND SWAP1 DUP5 JUMP JUMPDEST PUSH1 0x40 DUP1 MLOAD SWAP5 DUP6 MSTORE PUSH1 0x20 DUP6 ADD SWAP4 SWAP1 SWAP4 MSTORE SWAP1 ISZERO ISZERO SWAP2 DUP4 ADD SWAP2 SWAP1 SWAP2 MSTORE PUSH1 0x60 DUP3 ADD MSTORE PUSH1 0x80 ADD PUSH2 0xF3 JUMP JUMPDEST PUSH2 0x1D1 PUSH2 0x1CC CALLDATASIZE PUSH1 0x4 PUSH2 0xF0D JUMP JUMPDEST PUSH2 0x4B1 JUMP JUMPDEST PUSH1 0x40 MLOAD PUSH2 0xF3 SWAP4 SWAP3 SWAP2 SWAP1 PUSH2 0xF61 JUMP JUMPDEST PUSH2 0x198 PUSH2 0x1EE CALLDATASIZE PUSH1 0x4 PUSH2 0xF0D JUMP JUMPDEST PUSH2 0x59D JUMP JUMPDEST PUSH2 0xE9 PUSH2 0x201 CALLDATASIZE PUSH1 0x4 PUSH2 0xF8B JUMP JUMPDEST PUSH2 0x644 JUMP JUMPDEST PUSH2 0xCC PUSH2 0x214 CALLDATASIZE PUSH1 0x4 PUSH2 0xFAD JUMP JUMPDEST PUSH2 0x903 JUMP JUMPDEST PUSH2 0xE9 PUSH1 0x5 SLOAD DUP2 JUMP JUMPDEST CALLER PUSH1 0x1 PUSH1 0x1 PUSH1 0xA0 SHL SUB PUSH32 0x0 AND EQ PUSH2 0x29F JUMPI PUSH1 0x40 MLOAD PUSH3 0x461BCD PUSH1 0xE5 SHL DUP2 MSTORE PUSH1 0x20 PUSH1 0x4 DUP3 ADD MSTORE PUSH1 0x1F PUSH1 0x24 DUP3 ADD MSTORE PUSH32 0x6F6E6C792056524620563220777261707065722063616E2066756C66696C6C00 PUSH1 0x44 DUP3 ADD MSTORE PUSH1 0x64 ADD JUMPDEST PUSH1 0x40 MLOAD DUP1 SWAP2 SUB SWAP1 REVERT JUMPDEST PUSH2 0x2A9 DUP3 DUP3 PUSH2 0x914 JUMP JUMPDEST POP POP JUMP JUMPDEST PUSH1 0x1 SLOAD PUSH1 0x1 PUSH1 0x1 PUSH1 0xA0 SHL SUB AND CALLER EQ PUSH2 0x300 JUMPI PUSH1 0x40 MLOAD PUSH3 0x461BCD PUSH1 0xE5 SHL DUP2 MSTORE PUSH1 0x20 PUSH1 0x4 DUP3 ADD MSTORE PUSH1 0x16 PUSH1 0x24 DUP3 ADD MSTORE PUSH22 0x26BAB9BA10313290383937B837B9B2B21037BBB732B9 PUSH1 0x51 SHL PUSH1 0x44 DUP3 ADD MSTORE PUSH1 0x64 ADD PUSH2 0x296 JUMP JUMPDEST PUSH1 0x0 DUP1 SLOAD CALLER PUSH1 0x1 PUSH1 0x1 PUSH1 0xA0 SHL SUB NOT DUP1 DUP4 AND DUP3 OR DUP5 SSTORE PUSH1 0x1 DUP1 SLOAD SWAP1 SWAP2 AND SWAP1 SSTORE PUSH1 0x40 MLOAD PUSH1 0x1 PUSH1 0x1 PUSH1 0xA0 SHL SUB SWAP1 SWAP3 AND SWAP3 SWAP1 SWAP2 DUP4 SWAP2 PUSH32 0x8BE0079C531659141344CD1FD0A4F28419497F9722A3DAAFE3B4186F6B6457E0 SWAP2 LOG3 POP JUMP JUMPDEST PUSH1 0x4 DUP2 DUP2 SLOAD DUP2 LT PUSH2 0x367 JUMPI PUSH1 0x0 DUP1 REVERT JUMPDEST PUSH1 0x0 SWAP2 DUP3 MSTORE PUSH1 0x20 SWAP1 SWAP2 KECCAK256 ADD SLOAD SWAP1 POP DUP2 JUMP JUMPDEST PUSH2 0x380 PUSH2 0xAEE JUMP JUMPDEST PUSH1 0x6 SLOAD PUSH1 0x40 MLOAD PUSH4 0x70A08231 PUSH1 0xE0 SHL DUP2 MSTORE ADDRESS PUSH1 0x4 DUP3 ADD MSTORE PUSH1 0x1 PUSH1 0x50 SHL SWAP1 SWAP2 DIV PUSH1 0x1 PUSH1 0x1 PUSH1 0xA0 SHL SUB AND SWAP1 DUP2 SWAP1 PUSH4 0xA9059CBB SWAP1 CALLER SWAP1 DUP4 SWAP1 PUSH4 0x70A08231 SWAP1 PUSH1 0x24 ADD PUSH1 0x20 PUSH1 0x40 MLOAD DUP1 DUP4 SUB DUP2 DUP7 GAS STATICCALL ISZERO DUP1 ISZERO PUSH2 0x3DA JUMPI RETURNDATASIZE PUSH1 0x0 DUP1 RETURNDATACOPY RETURNDATASIZE PUSH1 0x0 REVERT JUMPDEST POP POP POP POP PUSH1 0x40 MLOAD RETURNDATASIZE PUSH1 0x1F NOT PUSH1 0x1F DUP3 ADD AND DUP3 ADD DUP1 PUSH1 0x40 MSTORE POP DUP2 ADD SWAP1 PUSH2 0x3FE SWAP2 SWAP1 PUSH2 0xFDD JUMP JUMPDEST PUSH1 0x40 MLOAD PUSH1 0x1 PUSH1 0x1 PUSH1 0xE0 SHL SUB NOT PUSH1 0xE0 DUP6 SWAP1 SHL AND DUP2 MSTORE PUSH1 0x1 PUSH1 0x1 PUSH1 0xA0 SHL SUB SWAP1 SWAP3 AND PUSH1 0x4 DUP4 ADD MSTORE PUSH1 0x24 DUP3 ADD MSTORE PUSH1 0x44 ADD PUSH1 0x20 PUSH1 0x40 MLOAD DUP1 DUP4 SUB DUP2 PUSH1 0x0 DUP8 GAS CALL ISZERO DUP1 ISZERO PUSH2 0x449 JUMPI RETURNDATASIZE PUSH1 0x0 DUP1 RETURNDATACOPY RETURNDATASIZE PUSH1 0x0 REVERT JUMPDEST POP POP POP POP PUSH1 0x40 MLOAD RETURNDATASIZE PUSH1 0x1F NOT PUSH1 0x1F DUP3 ADD AND DUP3 ADD DUP1 PUSH1 0x40 MSTORE POP DUP2 ADD SWAP1 PUSH2 0x46D SWAP2 SWAP1 PUSH2 0xFF6 JUMP JUMPDEST PUSH2 0x4AE JUMPI PUSH1 0x40 MLOAD PUSH3 0x461BCD PUSH1 0xE5 SHL DUP2 MSTORE PUSH1 0x20 PUSH1 0x4 DUP3 ADD MSTORE PUSH1 0x12 PUSH1 0x24 DUP3 ADD MSTORE PUSH18 0x2AB730B13632903A37903A3930B739B332B9 PUSH1 0x71 SHL PUSH1 0x44 DUP3 ADD MSTORE PUSH1 0x64 ADD PUSH2 0x296 JUMP JUMPDEST POP JUMP JUMPDEST PUSH1 0x0 DUP2 DUP2 MSTORE PUSH1 0x2 PUSH1 0x20 MSTORE PUSH1 0x40 DUP2 KECCAK256 SLOAD DUP2 SWAP1 PUSH1 0x60 SWAP1 PUSH2 0x505 JUMPI PUSH1 0x40 MLOAD PUSH3 0x461BCD PUSH1 0xE5 SHL DUP2 MSTORE PUSH1 0x20 PUSH1 0x4 DUP3 ADD MSTORE PUSH1 0x11 PUSH1 0x24 DUP3 ADD MSTORE PUSH17 0x1C995C5D595CDD081B9BDD08199BDD5B99 PUSH1 0x7A SHL PUSH1 0x44 DUP3 ADD MSTORE PUSH1 0x64 ADD PUSH2 0x296 JUMP JUMPDEST PUSH1 0x0 DUP5 DUP2 MSTORE PUSH1 0x2 PUSH1 0x20 DUP2 DUP2 MSTORE PUSH1 0x40 DUP1 DUP5 KECCAK256 DUP2 MLOAD PUSH1 0x60 DUP2 ADD DUP4 MSTORE DUP2 SLOAD DUP2 MSTORE PUSH1 0x1 DUP3 ADD SLOAD PUSH1 0xFF AND ISZERO ISZERO DUP2 DUP6 ADD MSTORE SWAP4 DUP2 ADD DUP1 SLOAD DUP4 MLOAD DUP2 DUP7 MUL DUP2 ADD DUP7 ADD DUP6 MSTORE DUP2 DUP2 MSTORE SWAP3 SWAP5 SWAP4 DUP7 ADD SWAP4 DUP4 ADD DUP3 DUP3 DUP1 ISZERO PUSH2 0x578 JUMPI PUSH1 0x20 MUL DUP3 ADD SWAP2 SWAP1 PUSH1 0x0 MSTORE PUSH1 0x20 PUSH1 0x0 KECCAK256 SWAP1 JUMPDEST DUP2 SLOAD DUP2 MSTORE PUSH1 0x20 ADD SWAP1 PUSH1 0x1 ADD SWAP1 DUP1 DUP4 GT PUSH2 0x564 JUMPI JUMPDEST POP POP POP SWAP2 SWAP1 SWAP3 MSTORE POP POP DUP2 MLOAD PUSH1 0x20 DUP4 ADD MLOAD PUSH1 0x40 SWAP1 SWAP4 ADD MLOAD SWAP1 SWAP9 SWAP3 SWAP8 POP SWAP6 POP SWAP1 SWAP4 POP POP POP POP JUMP JUMPDEST PUSH1 0x0 DUP2 DUP2 MSTORE PUSH1 0x3 PUSH1 0x20 MSTORE PUSH1 0x40 DUP2 KECCAK256 PUSH1 0x1 ADD SLOAD DUP2 SWAP1 DUP2 SWAP1 DUP2 SWAP1 PUSH2 0x5F2 JUMPI PUSH1 0x40 MLOAD PUSH3 0x461BCD PUSH1 0xE5 SHL DUP2 MSTORE PUSH1 0x20 PUSH1 0x4 DUP3 ADD MSTORE PUSH1 0xE PUSH1 0x24 DUP3 ADD MSTORE PUSH14 0x1C1A58DAC81B9BDD08199BDD5B99 PUSH1 0x92 SHL PUSH1 0x44 DUP3 ADD MSTORE PUSH1 0x64 ADD PUSH2 0x296 JUMP JUMPDEST POP POP POP PUSH1 0x0 SWAP2 DUP3 MSTORE POP PUSH1 0x3 PUSH1 0x20 DUP2 DUP2 MSTORE PUSH1 0x40 SWAP3 DUP4 SWAP1 KECCAK256 DUP4 MLOAD PUSH1 0x80 DUP2 ADD DUP6 MSTORE DUP2 SLOAD DUP1 DUP3 MSTORE PUSH1 0x1 DUP4 ADD SLOAD SWAP4 DUP3 ADD DUP5 SWAP1 MSTORE PUSH1 0x2 DUP4 ADD SLOAD PUSH1 0xFF AND ISZERO ISZERO SWAP6 DUP3 ADD DUP7 SWAP1 MSTORE SWAP2 SWAP1 SWAP4 ADD SLOAD PUSH1 0x60 SWAP1 SWAP4 ADD DUP4 SWAP1 MSTORE SWAP4 SWAP1 SWAP3 SWAP2 SWAP1 JUMP JUMPDEST PUSH1 0x0 PUSH2 0x64E PUSH2 0xAEE JUMP JUMPDEST PUSH1 0x0 DUP3 GT PUSH2 0x6B0 JUMPI PUSH1 0x40 MLOAD PUSH3 0x461BCD PUSH1 0xE5 SHL DUP2 MSTORE PUSH1 0x20 PUSH1 0x4 DUP3 ADD MSTORE PUSH1 0x29 PUSH1 0x24 DUP3 ADD MSTORE PUSH32 0x4D7573742068617665206174206C65617374206F6E65206974656D20746F2070 PUSH1 0x44 DUP3 ADD MSTORE PUSH9 0x34B1B590333937B697 PUSH1 0xB9 SHL PUSH1 0x64 DUP3 ADD MSTORE PUSH1 0x84 ADD PUSH2 0x296 JUMP JUMPDEST PUSH1 0x6 SLOAD PUSH2 0x6DE SWAP1 PUSH4 0xFFFFFFFF DUP1 DUP3 AND SWAP2 PUSH2 0xFFFF PUSH5 0x100000000 DUP3 DIV AND SWAP2 PUSH7 0x1000000000000 SWAP1 SWAP2 DIV AND PUSH2 0xB43 JUMP JUMPDEST PUSH1 0x40 DUP1 MLOAD PUSH1 0x60 DUP2 ADD SWAP2 DUP3 SWAP1 MSTORE PUSH1 0x6 SLOAD PUSH4 0x10C1B4D5 PUSH1 0xE2 SHL SWAP1 SWAP3 MSTORE PUSH4 0xFFFFFFFF SWAP1 SWAP2 AND PUSH1 0x64 DUP3 ADD MSTORE SWAP1 SWAP2 POP DUP1 PUSH32 0x0 PUSH1 0x1 PUSH1 0x1 PUSH1 0xA0 SHL SUB AND PUSH4 0x4306D354 PUSH1 0x84 DUP4 ADD PUSH1 0x20 PUSH1 0x40 MLOAD DUP1 DUP4 SUB DUP2 DUP7 GAS STATICCALL ISZERO DUP1 ISZERO PUSH2 0x759 JUMPI RETURNDATASIZE PUSH1 0x0 DUP1 RETURNDATACOPY RETURNDATASIZE PUSH1 0x0 REVERT JUMPDEST POP POP POP POP PUSH1 0x40 MLOAD RETURNDATASIZE PUSH1 0x1F NOT PUSH1 0x1F DUP3 ADD AND DUP3 ADD DUP1 PUSH1 0x40 MSTORE POP DUP2 ADD SWAP1 PUSH2 0x77D SWAP2 SWAP1 PUSH2 0xFDD JUMP JUMPDEST DUP2 MSTORE PUSH1 0x0 PUSH1 0x20 DUP1 DUP4 ADD DUP3 SWAP1 MSTORE PUSH1 0x40 DUP1 MLOAD DUP4 DUP2 MSTORE DUP1 DUP4 ADD DUP3 MSTORE SWAP4 DUP2 ADD SWAP4 SWAP1 SWAP4 MSTORE DUP5 DUP3 MSTORE PUSH1 0x2 DUP1 DUP3 MSTORE SWAP2 DUP4 SWAP1 KECCAK256 DUP5 MLOAD DUP2 SSTORE DUP5 DUP3 ADD MLOAD PUSH1 0x1 DUP3 ADD DUP1 SLOAD PUSH1 0xFF NOT AND SWAP2 ISZERO ISZERO SWAP2 SWAP1 SWAP2 OR SWAP1 SSTORE SWAP3 DUP5 ADD MLOAD DUP1 MLOAD PUSH2 0x7DA SWAP4 DUP6 ADD SWAP3 SWAP2 SWAP1 SWAP2 ADD SWAP1 PUSH2 0xDCD JUMP JUMPDEST POP POP PUSH1 0x40 DUP1 MLOAD PUSH1 0x80 DUP2 ADD DUP3 MSTORE DUP6 DUP2 MSTORE PUSH1 0x20 DUP1 DUP3 ADD DUP7 DUP2 MSTORE PUSH1 0x0 DUP4 DUP6 ADD DUP2 DUP2 MSTORE PUSH1 0x60 DUP6 ADD DUP3 DUP2 MSTORE DUP9 DUP4 MSTORE PUSH1 0x3 DUP1 DUP7 MSTORE DUP8 DUP5 KECCAK256 SWAP7 MLOAD DUP8 SSTORE SWAP4 MLOAD PUSH1 0x1 DUP1 DUP9 ADD SWAP2 SWAP1 SWAP2 SSTORE SWAP2 MLOAD PUSH1 0x2 DUP8 ADD DUP1 SLOAD PUSH1 0xFF NOT AND SWAP2 ISZERO ISZERO SWAP2 SWAP1 SWAP2 OR SWAP1 SSTORE MLOAD SWAP5 SWAP1 SWAP3 ADD SWAP4 SWAP1 SWAP4 SSTORE PUSH1 0x4 DUP1 SLOAD SWAP2 DUP3 ADD DUP2 SSTORE SWAP1 SWAP3 MSTORE PUSH32 0x8A35ACFBC15FF81A39AE7D344FD709F28E8600B4AA8C65C6B64BFE7FE36BD19B SWAP1 SWAP2 ADD DUP5 SWAP1 SSTORE PUSH1 0x5 DUP5 SWAP1 SSTORE PUSH1 0x6 SLOAD DUP3 MLOAD DUP6 DUP2 MSTORE PUSH7 0x1000000000000 SWAP1 SWAP2 DIV PUSH4 0xFFFFFFFF AND SWAP2 DUP2 ADD SWAP2 SWAP1 SWAP2 MSTORE PUSH32 0xCC58B13AD3EAB50626C6A6300B1D139CD6EBB1688A7CCED9461C2F7E762665EE SWAP3 POP ADD PUSH1 0x40 MLOAD DUP1 SWAP2 SUB SWAP1 LOG1 PUSH1 0x40 DUP1 MLOAD DUP5 DUP2 MSTORE PUSH1 0x20 DUP2 ADD DUP5 SWAP1 MSTORE SWAP1 DUP2 ADD DUP3 SWAP1 MSTORE PUSH32 0xFD817988341EC7059BEEB40C29364215C554A68B8D479FC8908287C5B4D63A27 SWAP1 PUSH1 0x60 ADD PUSH1 0x40 MLOAD DUP1 SWAP2 SUB SWAP1 LOG1 SWAP3 SWAP2 POP POP JUMP JUMPDEST PUSH2 0x90B PUSH2 0xAEE JUMP JUMPDEST PUSH2 0x4AE DUP2 PUSH2 0xD24 JUMP JUMPDEST PUSH1 0x0 DUP3 DUP2 MSTORE PUSH1 0x2 PUSH1 0x20 MSTORE PUSH1 0x40 SWAP1 KECCAK256 SLOAD PUSH2 0x963 JUMPI PUSH1 0x40 MLOAD PUSH3 0x461BCD PUSH1 0xE5 SHL DUP2 MSTORE PUSH1 0x20 PUSH1 0x4 DUP3 ADD MSTORE PUSH1 0x11 PUSH1 0x24 DUP3 ADD MSTORE PUSH17 0x1C995C5D595CDD081B9BDD08199BDD5B99 PUSH1 0x7A SHL PUSH1 0x44 DUP3 ADD MSTORE PUSH1 0x64 ADD PUSH2 0x296 JUMP JUMPDEST PUSH1 0x0 DUP3 DUP2 MSTORE PUSH1 0x3 PUSH1 0x20 MSTORE PUSH1 0x40 SWAP1 KECCAK256 PUSH1 0x1 ADD SLOAD PUSH2 0x9B2 JUMPI PUSH1 0x40 MLOAD PUSH3 0x461BCD PUSH1 0xE5 SHL DUP2 MSTORE PUSH1 0x20 PUSH1 0x4 DUP3 ADD MSTORE PUSH1 0xE PUSH1 0x24 DUP3 ADD MSTORE PUSH14 0x1C1A58DAC81B9BDD08199BDD5B99 PUSH1 0x92 SHL PUSH1 0x44 DUP3 ADD MSTORE PUSH1 0x64 ADD PUSH2 0x296 JUMP JUMPDEST PUSH1 0x0 DUP3 DUP2 MSTORE PUSH1 0x2 PUSH1 0x20 DUP2 DUP2 MSTORE PUSH1 0x40 SWAP1 SWAP3 KECCAK256 PUSH1 0x1 DUP2 DUP2 ADD DUP1 SLOAD PUSH1 0xFF NOT AND SWAP1 SWAP2 OR SWAP1 SSTORE DUP4 MLOAD PUSH2 0x9E7 SWAP4 SWAP2 SWAP1 SWAP3 ADD SWAP2 SWAP1 DUP5 ADD SWAP1 PUSH2 0xDCD JUMP JUMPDEST POP PUSH1 0x0 DUP3 DUP2 MSTORE PUSH1 0x3 PUSH1 0x20 MSTORE PUSH1 0x40 DUP2 KECCAK256 PUSH1 0x1 ADD SLOAD DUP3 MLOAD DUP4 SWAP1 DUP4 SWAP1 PUSH2 0xA0C JUMPI PUSH2 0xA0C PUSH2 0x1018 JUMP JUMPDEST PUSH1 0x20 MUL PUSH1 0x20 ADD ADD MLOAD PUSH2 0xA1E SWAP2 SWAP1 PUSH2 0x102E JUMP JUMPDEST PUSH1 0x0 DUP5 DUP2 MSTORE PUSH1 0x3 PUSH1 0x20 DUP2 DUP2 MSTORE PUSH1 0x40 DUP1 DUP5 KECCAK256 PUSH1 0x2 DUP1 DUP3 ADD DUP1 SLOAD PUSH1 0xFF NOT AND PUSH1 0x1 OR SWAP1 SSTORE SWAP4 ADD DUP6 SWAP1 SSTORE SWAP2 SWAP1 MSTORE SWAP1 DUP2 SWAP1 KECCAK256 SLOAD SWAP1 MLOAD SWAP2 SWAP3 POP PUSH32 0x147EB1FF0C82F87F2B03E2C43F5A36488FF63EC6B730195FDE4605F612F8DB51 SWAP2 PUSH2 0xA81 SWAP2 DUP7 SWAP2 DUP7 SWAP2 SWAP1 PUSH2 0x1050 JUMP JUMPDEST PUSH1 0x40 MLOAD DUP1 SWAP2 SUB SWAP1 LOG1 PUSH1 0x0 DUP4 DUP2 MSTORE PUSH1 0x3 PUSH1 0x20 SWAP1 DUP2 MSTORE PUSH1 0x40 SWAP2 DUP3 SWAP1 KECCAK256 DUP1 SLOAD PUSH1 0x1 SWAP1 SWAP2 ADD SLOAD DUP4 MLOAD SWAP2 DUP3 MSTORE SWAP2 DUP2 ADD SWAP2 SWAP1 SWAP2 MSTORE SWAP1 DUP2 ADD DUP3 SWAP1 MSTORE PUSH1 0x60 DUP2 ADD DUP5 SWAP1 MSTORE PUSH32 0x568B75C41AE0AB8D80BC8223356841D584E86546B66CB1EE87AF822C8251D61B SWAP1 PUSH1 0x80 ADD PUSH1 0x40 MLOAD DUP1 SWAP2 SUB SWAP1 LOG1 POP POP POP JUMP JUMPDEST PUSH1 0x0 SLOAD PUSH1 0x1 PUSH1 0x1 PUSH1 0xA0 SHL SUB AND CALLER EQ PUSH2 0xB41 JUMPI PUSH1 0x40 MLOAD PUSH3 0x461BCD PUSH1 0xE5 SHL DUP2 MSTORE PUSH1 0x20 PUSH1 0x4 DUP3 ADD MSTORE PUSH1 0x16 PUSH1 0x24 DUP3 ADD MSTORE PUSH22 0x27B7363C9031B0B63630B1363290313C9037BBB732B9 PUSH1 0x51 SHL PUSH1 0x44 DUP3 ADD MSTORE PUSH1 0x64 ADD PUSH2 0x296 JUMP JUMPDEST JUMP JUMPDEST PUSH1 0x40 MLOAD PUSH4 0x10C1B4D5 PUSH1 0xE2 SHL DUP2 MSTORE PUSH4 0xFFFFFFFF DUP5 AND PUSH1 0x4 DUP3 ADD MSTORE PUSH1 0x0 SWAP1 PUSH1 0x1 PUSH1 0x1 PUSH1 0xA0 SHL SUB PUSH32 0x0 DUP2 AND SWAP2 PUSH4 0x4000AEA0 SWAP2 PUSH32 0x0 SWAP2 SWAP1 DUP3 AND SWAP1 PUSH4 0x4306D354 SWAP1 PUSH1 0x24 ADD PUSH1 0x20 PUSH1 0x40 MLOAD DUP1 DUP4 SUB DUP2 DUP7 GAS STATICCALL ISZERO DUP1 ISZERO PUSH2 0xBDD JUMPI RETURNDATASIZE PUSH1 0x0 DUP1 RETURNDATACOPY RETURNDATASIZE PUSH1 0x0 REVERT JUMPDEST POP POP POP POP PUSH1 0x40 MLOAD RETURNDATASIZE PUSH1 0x1F NOT PUSH1 0x1F DUP3 ADD AND DUP3 ADD DUP1 PUSH1 0x40 MSTORE POP DUP2 ADD SWAP1 PUSH2 0xC01 SWAP2 SWAP1 PUSH2 0xFDD JUMP JUMPDEST PUSH1 0x40 DUP1 MLOAD PUSH4 0xFFFFFFFF DUP1 DUP12 AND PUSH1 0x20 DUP4 ADD MSTORE PUSH2 0xFFFF DUP11 AND SWAP3 DUP3 ADD SWAP3 SWAP1 SWAP3 MSTORE SWAP1 DUP8 AND PUSH1 0x60 DUP3 ADD MSTORE PUSH1 0x80 ADD PUSH1 0x40 MLOAD PUSH1 0x20 DUP2 DUP4 SUB SUB DUP2 MSTORE SWAP1 PUSH1 0x40 MSTORE PUSH1 0x40 MLOAD DUP5 PUSH4 0xFFFFFFFF AND PUSH1 0xE0 SHL DUP2 MSTORE PUSH1 0x4 ADD PUSH2 0xC56 SWAP4 SWAP3 SWAP2 SWAP1 PUSH2 0x1079 JUMP JUMPDEST PUSH1 0x20 PUSH1 0x40 MLOAD DUP1 DUP4 SUB DUP2 PUSH1 0x0 DUP8 GAS CALL ISZERO DUP1 ISZERO PUSH2 0xC75 JUMPI RETURNDATASIZE PUSH1 0x0 DUP1 RETURNDATACOPY RETURNDATASIZE PUSH1 0x0 REVERT JUMPDEST POP POP POP POP PUSH1 0x40 MLOAD RETURNDATASIZE PUSH1 0x1F NOT PUSH1 0x1F DUP3 ADD AND DUP3 ADD DUP1 PUSH1 0x40 MSTORE POP DUP2 ADD SWAP1 PUSH2 0xC99 SWAP2 SWAP1 PUSH2 0xFF6 JUMP JUMPDEST POP PUSH32 0x0 PUSH1 0x1 PUSH1 0x1 PUSH1 0xA0 SHL SUB AND PUSH4 0xFC2A88C3 PUSH1 0x40 MLOAD DUP2 PUSH4 0xFFFFFFFF AND PUSH1 0xE0 SHL DUP2 MSTORE PUSH1 0x4 ADD PUSH1 0x20 PUSH1 0x40 MLOAD DUP1 DUP4 SUB DUP2 DUP7 GAS STATICCALL ISZERO DUP1 ISZERO PUSH2 0xCF8 JUMPI RETURNDATASIZE PUSH1 0x0 DUP1 RETURNDATACOPY RETURNDATASIZE PUSH1 0x0 REVERT JUMPDEST POP POP POP POP PUSH1 0x40 MLOAD RETURNDATASIZE PUSH1 0x1F NOT PUSH1 0x1F DUP3 ADD AND DUP3 ADD DUP1 PUSH1 0x40 MSTORE POP DUP2 ADD SWAP1 PUSH2 0xD1C SWAP2 SWAP1 PUSH2 0xFDD JUMP JUMPDEST SWAP5 SWAP4 POP POP POP POP JUMP JUMPDEST CALLER PUSH1 0x1 PUSH1 0x1 PUSH1 0xA0 SHL SUB DUP3 AND SUB PUSH2 0xD7C JUMPI PUSH1 0x40 MLOAD PUSH3 0x461BCD PUSH1 0xE5 SHL DUP2 MSTORE PUSH1 0x20 PUSH1 0x4 DUP3 ADD MSTORE PUSH1 0x17 PUSH1 0x24 DUP3 ADD MSTORE PUSH32 0x43616E6E6F74207472616E7366657220746F2073656C66000000000000000000 PUSH1 0x44 DUP3 ADD MSTORE PUSH1 0x64 ADD PUSH2 0x296 JUMP JUMPDEST PUSH1 0x1 DUP1 SLOAD PUSH1 0x1 PUSH1 0x1 PUSH1 0xA0 SHL SUB NOT AND PUSH1 0x1 PUSH1 0x1 PUSH1 0xA0 SHL SUB DUP4 DUP2 AND SWAP2 DUP3 OR SWAP1 SWAP3 SSTORE PUSH1 0x0 DUP1 SLOAD PUSH1 0x40 MLOAD SWAP3 SWAP4 AND SWAP2 PUSH32 0xED8889F560326EB138920D842192F0EB3DD22B4F139C87A2C57538E05BAE1278 SWAP2 SWAP1 LOG3 POP JUMP JUMPDEST DUP3 DUP1 SLOAD DUP3 DUP3 SSTORE SWAP1 PUSH1 0x0 MSTORE PUSH1 0x20 PUSH1 0x0 KECCAK256 SWAP1 DUP2 ADD SWAP3 DUP3 ISZERO PUSH2 0xE08 JUMPI SWAP2 PUSH1 0x20 MUL DUP3 ADD JUMPDEST DUP3 DUP2 GT ISZERO PUSH2 0xE08 JUMPI DUP3 MLOAD DUP3 SSTORE SWAP2 PUSH1 0x20 ADD SWAP2 SWAP1 PUSH1 0x1 ADD SWAP1 PUSH2 0xDED JUMP JUMPDEST POP PUSH2 0xE14 SWAP3 SWAP2 POP PUSH2 0xE18 JUMP JUMPDEST POP SWAP1 JUMP JUMPDEST JUMPDEST DUP1 DUP3 GT ISZERO PUSH2 0xE14 JUMPI PUSH1 0x0 DUP2 SSTORE PUSH1 0x1 ADD PUSH2 0xE19 JUMP JUMPDEST PUSH4 0x4E487B71 PUSH1 0xE0 SHL PUSH1 0x0 MSTORE PUSH1 0x41 PUSH1 0x4 MSTORE PUSH1 0x24 PUSH1 0x0 REVERT JUMPDEST PUSH1 0x0 DUP1 PUSH1 0x40 DUP4 DUP6 SUB SLT ISZERO PUSH2 0xE56 JUMPI PUSH1 0x0 DUP1 REVERT JUMPDEST DUP3 CALLDATALOAD SWAP2 POP PUSH1 0x20 DUP1 DUP5 ADD CALLDATALOAD PUSH8 0xFFFFFFFFFFFFFFFF DUP1 DUP3 GT ISZERO PUSH2 0xE76 JUMPI PUSH1 0x0 DUP1 REVERT JUMPDEST DUP2 DUP7 ADD SWAP2 POP DUP7 PUSH1 0x1F DUP4 ADD SLT PUSH2 0xE8A JUMPI PUSH1 0x0 DUP1 REVERT JUMPDEST DUP2 CALLDATALOAD DUP2 DUP2 GT ISZERO PUSH2 0xE9C JUMPI PUSH2 0xE9C PUSH2 0xE2D JUMP JUMPDEST DUP1 PUSH1 0x5 SHL PUSH1 0x40 MLOAD PUSH1 0x1F NOT PUSH1 0x3F DUP4 ADD AND DUP2 ADD DUP2 DUP2 LT DUP6 DUP3 GT OR ISZERO PUSH2 0xEC1 JUMPI PUSH2 0xEC1 PUSH2 0xE2D JUMP JUMPDEST PUSH1 0x40 MSTORE SWAP2 DUP3 MSTORE DUP5 DUP3 ADD SWAP3 POP DUP4 DUP2 ADD DUP6 ADD SWAP2 DUP10 DUP4 GT ISZERO PUSH2 0xEDF JUMPI PUSH1 0x0 DUP1 REVERT JUMPDEST SWAP4 DUP6 ADD SWAP4 JUMPDEST DUP3 DUP6 LT ISZERO PUSH2 0xEFD JUMPI DUP5 CALLDATALOAD DUP5 MSTORE SWAP4 DUP6 ADD SWAP4 SWAP3 DUP6 ADD SWAP3 PUSH2 0xEE4 JUMP JUMPDEST DUP1 SWAP7 POP POP POP POP POP POP POP SWAP3 POP SWAP3 SWAP1 POP JUMP JUMPDEST PUSH1 0x0 PUSH1 0x20 DUP3 DUP5 SUB SLT ISZERO PUSH2 0xF1F JUMPI PUSH1 0x0 DUP1 REVERT JUMPDEST POP CALLDATALOAD SWAP2 SWAP1 POP JUMP JUMPDEST PUSH1 0x0 DUP2 MLOAD DUP1 DUP5 MSTORE PUSH1 0x20 DUP1 DUP6 ADD SWAP5 POP DUP1 DUP5 ADD PUSH1 0x0 JUMPDEST DUP4 DUP2 LT ISZERO PUSH2 0xF56 JUMPI DUP2 MLOAD DUP8 MSTORE SWAP6 DUP3 ADD SWAP6 SWAP1 DUP3 ADD SWAP1 PUSH1 0x1 ADD PUSH2 0xF3A JUMP JUMPDEST POP SWAP5 SWAP6 SWAP5 POP POP POP POP POP JUMP JUMPDEST DUP4 DUP2 MSTORE DUP3 ISZERO ISZERO PUSH1 0x20 DUP3 ADD MSTORE PUSH1 0x60 PUSH1 0x40 DUP3 ADD MSTORE PUSH1 0x0 PUSH2 0xF82 PUSH1 0x60 DUP4 ADD DUP5 PUSH2 0xF26 JUMP JUMPDEST SWAP6 SWAP5 POP POP POP POP POP JUMP JUMPDEST PUSH1 0x0 DUP1 PUSH1 0x40 DUP4 DUP6 SUB SLT ISZERO PUSH2 0xF9E JUMPI PUSH1 0x0 DUP1 REVERT JUMPDEST POP POP DUP1 CALLDATALOAD SWAP3 PUSH1 0x20 SWAP1 SWAP2 ADD CALLDATALOAD SWAP2 POP JUMP JUMPDEST PUSH1 0x0 PUSH1 0x20 DUP3 DUP5 SUB SLT ISZERO PUSH2 0xFBF JUMPI PUSH1 0x0 DUP1 REVERT JUMPDEST DUP2 CALLDATALOAD PUSH1 0x1 PUSH1 0x1 PUSH1 0xA0 SHL SUB DUP2 AND DUP2 EQ PUSH2 0xFD6 JUMPI PUSH1 0x0 DUP1 REVERT JUMPDEST SWAP4 SWAP3 POP POP POP JUMP JUMPDEST PUSH1 0x0 PUSH1 0x20 DUP3 DUP5 SUB SLT ISZERO PUSH2 0xFEF JUMPI PUSH1 0x0 DUP1 REVERT JUMPDEST POP MLOAD SWAP2 SWAP1 POP JUMP JUMPDEST PUSH1 0x0 PUSH1 0x20 DUP3 DUP5 SUB SLT ISZERO PUSH2 0x1008 JUMPI PUSH1 0x0 DUP1 REVERT JUMPDEST DUP2 MLOAD DUP1 ISZERO ISZERO DUP2 EQ PUSH2 0xFD6 JUMPI PUSH1 0x0 DUP1 REVERT JUMPDEST PUSH4 0x4E487B71 PUSH1 0xE0 SHL PUSH1 0x0 MSTORE PUSH1 0x32 PUSH1 0x4 MSTORE PUSH1 0x24 PUSH1 0x0 REVERT JUMPDEST PUSH1 0x0 DUP3 PUSH2 0x104B JUMPI PUSH4 0x4E487B71 PUSH1 0xE0 SHL PUSH1 0x0 MSTORE PUSH1 0x12 PUSH1 0x4 MSTORE PUSH1 0x24 PUSH1 0x0 REVERT JUMPDEST POP MOD SWAP1 JUMP JUMPDEST DUP4 DUP2 MSTORE PUSH1 0x60 PUSH1 0x20 DUP3 ADD MSTORE PUSH1 0x0 PUSH2 0x1069 PUSH1 0x60 DUP4 ADD DUP6 PUSH2 0xF26 JUMP JUMPDEST SWAP1 POP DUP3 PUSH1 0x40 DUP4 ADD MSTORE SWAP5 SWAP4 POP POP POP POP JUMP JUMPDEST PUSH1 0x1 DUP1 PUSH1 0xA0 SHL SUB DUP5 AND DUP2 MSTORE PUSH1 0x0 PUSH1 0x20 DUP5 DUP2 DUP5 ADD MSTORE PUSH1 0x60 PUSH1 0x40 DUP5 ADD MSTORE DUP4 MLOAD DUP1 PUSH1 0x60 DUP6 ADD MSTORE PUSH1 0x0 JUMPDEST DUP2 DUP2 LT ISZERO PUSH2 0x10BB JUMPI DUP6 DUP2 ADD DUP4 ADD MLOAD DUP6 DUP3 ADD PUSH1 0x80 ADD MSTORE DUP3 ADD PUSH2 0x109F JUMP JUMPDEST POP PUSH1 0x0 PUSH1 0x80 DUP3 DUP7 ADD ADD MSTORE PUSH1 0x80 PUSH1 0x1F NOT PUSH1 0x1F DUP4 ADD AND DUP6 ADD ADD SWAP3 POP POP POP SWAP5 SWAP4 POP POP POP POP JUMP INVALID LOG2 PUSH5 0x6970667358 0x22 SLT KECCAK256 GASLIMIT SWAP6 PUSH26 0xC34AFC8DE28AF627EB8B5BAF5A4263AFCE0284F1A91A90910F64 LOG0 0x24 PUSH2 0x6473 PUSH16 0x6C634300081200330000000000000000 "
				},
				"gasEstimates": {
					"creation": {
						"codeDepositCost": "874400",
						"executionCost": "infinite",
						"totalCost": "infinite"
					},
					"external": {
						"acceptOwnership()": "52322",
						"commitPickRequest(bytes32,uint256)": "infinite",
						"getPickStatus(uint256)": "11252",
						"getRequestStatus(uint256)": "infinite",
						"lastRequestId()": "2394",
						"owner()": "2368",
						"rawFulfillRandomWords(uint256,uint256[])": "infinite",
						"requestIds(uint256)": "4609",
						"s_picks(uint256)": "8873",
						"s_requests(uint256)": "4694",
						"transferOwnership(address)": "30489",
						"withdrawLink()": "infinite"
					},
					"internal": {
						"fulfillRandomWords(uint256,uint256[] memory)": "infinite"
					}
				},
				"methodIdentifiers": {
					"acceptOwnership()": "79ba5097",
					"commitPickRequest(bytes32,uint256)": "deb93c7c",
					"getPickStatus(uint256)": "d94afeb6",
					"getRequestStatus(uint256)": "d8a4676f",
					"lastRequestId()": "fc2a88c3",
					"owner()": "8da5cb5b",
					"rawFulfillRandomWords(uint256,uint256[])": "1fe543e3",
					"requestIds(uint256)": "8796ba8c",
					"s_picks(uint256)": "d41f27d9",
					"s_requests(uint256)": "a168fa89",
					"transferOwnership(address)": "f2fde38b",
					"withdrawLink()": "8dc654a2"
				}
			},
			"storageLayout": {
				"storage": [
					{
						"astId": 27,
						"contract": "OdivilleChoices.sol:OdivilleChoices",
						"label": "s_owner",
						"offset": 0,
						"slot": "0",
						"type": "t_address"
					},
					{
						"astId": 29,
						"contract": "OdivilleChoices.sol:OdivilleChoices",
						"label": "s_pendingOwner",
						"offset": 0,
						"slot": "1",
						"type": "t_address"
					},
					{
						"astId": 476,
						"contract": "OdivilleChoices.sol:OdivilleChoices",
						"label": "s_requests",
						"offset": 0,
						"slot": "2",
						"type": "t_mapping(t_uint256,t_struct(RequestStatus)471_storage)"
					},
					{
						"astId": 490,
						"contract": "OdivilleChoices.sol:OdivilleChoices",
						"label": "s_picks",
						"offset": 0,
						"slot": "3",
						"type": "t_mapping(t_uint256,t_struct(PickStatus)485_storage)"
					},
					{
						"astId": 493,
						"contract": "OdivilleChoices.sol:OdivilleChoices",
						"label": "requestIds",
						"offset": 0,
						"slot": "4",
						"type": "t_array(t_uint256)dyn_storage"
					},
					{
						"astId": 495,
						"contract": "OdivilleChoices.sol:OdivilleChoices",
						"label": "lastRequestId",
						"offset": 0,
						"slot": "5",
						"type": "t_uint256"
					},
					{
						"astId": 498,
						"contract": "OdivilleChoices.sol:OdivilleChoices",
						"label": "callbackGasLimit",
						"offset": 0,
						"slot": "6",
						"type": "t_uint32"
					},
					{
						"astId": 501,
						"contract": "OdivilleChoices.sol:OdivilleChoices",
						"label": "requestConfirmations",
						"offset": 4,
						"slot": "6",
						"type": "t_uint16"
					},
					{
						"astId": 504,
						"contract": "OdivilleChoices.sol:OdivilleChoices",
						"label": "numWords",
						"offset": 6,
						"slot": "6",
						"type": "t_uint32"
					},
					{
						"astId": 507,
						"contract": "OdivilleChoices.sol:OdivilleChoices",
						"label": "linkAddress",
						"offset": 10,
						"slot": "6",
						"type": "t_address"
					},
					{
						"astId": 510,
						"contract": "OdivilleChoices.sol:OdivilleChoices",
						"label": "wrapperAddress",
						"offset": 0,
						"slot": "7",
						"type": "t_address"
					}
				],
				"types": {
					"t_address": {
						"encoding": "inplace",
						"label": "address",
						"numberOfBytes": "20"
					},
					"t_array(t_uint256)dyn_storage": {
						"base": "t_uint256",
						"encoding": "dynamic_array",
						"label": "uint256[]",
						"numberOfBytes": "32"
					},
					"t_bool": {
						"encoding": "inplace",
						"label": "bool",
						"numberOfBytes": "1"
					},
					"t_bytes32": {
						"encoding": "inplace",
						"label": "bytes32",
						"numberOfBytes": "32"
					},
					"t_mapping(t_uint256,t_struct(PickStatus)485_storage)": {
						"encoding": "mapping",
						"key": "t_uint256",
						"label": "mapping(uint256 => struct OdivilleChoices.PickStatus)",
						"numberOfBytes": "32",
						"value": "t_struct(PickStatus)485_storage"
					},
					"t_mapping(t_uint256,t_struct(RequestStatus)471_storage)": {
						"encoding": "mapping",
						"key": "t_uint256",
						"label": "mapping(uint256 => struct OdivilleChoices.RequestStatus)",
						"numberOfBytes": "32",
						"value": "t_struct(RequestStatus)471_storage"
					},
					"t_struct(PickStatus)485_storage": {
						"encoding": "inplace",
						"label": "struct OdivilleChoices.PickStatus",
						"members": [
							{
								"astId": 478,
								"contract": "OdivilleChoices.sol:OdivilleChoices",
								"label": "pickHash",
								"offset": 0,
								"slot": "0",
								"type": "t_bytes32"
							},
							{
								"astId": 480,
								"contract": "OdivilleChoices.sol:OdivilleChoices",
								"label": "pickLength",
								"offset": 0,
								"slot": "1",
								"type": "t_uint256"
							},
							{
								"astId": 482,
								"contract": "OdivilleChoices.sol:OdivilleChoices",
								"label": "fulfilled",
								"offset": 0,
								"slot": "2",
								"type": "t_bool"
							},
							{
								"astId": 484,
								"contract": "OdivilleChoices.sol:OdivilleChoices",
								"label": "result",
								"offset": 0,
								"slot": "3",
								"type": "t_uint256"
							}
						],
						"numberOfBytes": "128"
					},
					"t_struct(RequestStatus)471_storage": {
						"encoding": "inplace",
						"label": "struct OdivilleChoices.RequestStatus",
						"members": [
							{
								"astId": 465,
								"contract": "OdivilleChoices.sol:OdivilleChoices",
								"label": "paid",
								"offset": 0,
								"slot": "0",
								"type": "t_uint256"
							},
							{
								"astId": 467,
								"contract": "OdivilleChoices.sol:OdivilleChoices",
								"label": "fulfilled",
								"offset": 0,
								"slot": "1",
								"type": "t_bool"
							},
							{
								"astId": 470,
								"contract": "OdivilleChoices.sol:OdivilleChoices",
								"label": "randomWords",
								"offset": 0,
								"slot": "2",
								"type": "t_array(t_uint256)dyn_storage"
							}
						],
						"numberOfBytes": "96"
					},
					"t_uint16": {
						"encoding": "inplace",
						"label": "uint16",
						"numberOfBytes": "2"
					},
					"t_uint256": {
						"encoding": "inplace",
						"label": "uint256",
						"numberOfBytes": "32"
					},
					"t_uint32": {
						"encoding": "inplace",
						"label": "uint32",
						"numberOfBytes": "4"
					}
				}
			},
			"userdoc": {
				"kind": "user",
				"methods": {
					"acceptOwnership()": {
						"notice": "Allows an ownership transfer to be completed by the recipient."
					},
					"owner()": {
						"notice": "Get the current owner"
					},
					"transferOwnership(address)": {
						"notice": "Allows an owner to begin transferring ownership to a new address, pending."
					},
					"withdrawLink()": {
						"notice": "Allow withdraw of Link tokens from the contract"
					}
				},
				"version": 1
			}
		}
	}
}